:100000000C942A000C943F000C943F000C943F0089
:100010000C943F000C943F000C943F000C943F0064
:100020000C943F000C943F000C943F000C943F0054
:100030000C943F000C943F000C943F000C943F0044
:100040000C943F000C943F000C943F000C943F0034
:100050000C943F0011241FBECFE5D8E0DEBFCDBF1A
:1000600010E0A0E6B0E0E6EFF9E102C005900D92E5
:10007000A836B107D9F70E948E090C94F90C0C949C
:100080000000EF92FF920F931F937B018C0120E001
:1000900030E040E05FE40E94410388238CF0C80117
:1000A000B70120E030E040E05FE40E94B9010E9427
:1000B000A1039B01AC01205030404040504806C095
:1000C000C801B7010E94A1039B01AC01B901CA019B
:1000D0001F910F91FF90EF900895A0E0B0E0E3E74B
:1000E000F0E00C94C20CDC012B01FA019C919230DF
:1000F00008F439C1EB018881823008F433C19430AF
:1001000069F4843009F02FC111969C91119789816F
:10011000981709F428C1A0E6B0E025C1843009F49D
:1001200021C18230A9F4923009F01DC19A01AD01BC
:1001300088E0EA010990AE01E90109929E0181502F
:10014000C1F7E201898111969C918923818308C1BD
:10015000923009F407C112962D903C901397EB0151
:100160008A819B811496AD90BD90CD90DC901797BD
:10017000EC80FD800E811F819101281B390BB90194
:1001800037FF04C066277727621B730B6032710547
:100190000CF061C0121613066CF537014801062EEB
:1001A00004C096948794779467940A94D2F721E0D8
:1001B00030E040E050E004C0220F331F441F551FC1
:1001C0006A95D2F721503040404050402E213F21C7
:1001D00040235123211531054105510521F021E02E
:1001E00030E040E050E079018A01E628F72808294C
:1001F00019293CC0232BD1F1260E371E35014601AB
:10020000062E04C096948794779467940A94D2F744
:1002100021E030E040E050E004C0220F331F441FD3
:10022000551F6A95D2F721503040404050402A2156
:100230003B214C215D21211531054105510521F05E
:1002400021E030E040E050E059016A01A628B728DB
:10025000C828D9280BC0821593052CF01C01AA24AC
:10026000BB24650103C0EE24FF24870111969C91F5
:10027000D20111968C91981709F445C0992339F051
:10028000A80197012A193B094C095D0906C0A6017E
:1002900095012E193F09400B510B57FD08C01182E3
:1002A0003382228224833583468357831DC081E0B5
:1002B00081833382228288279927DC01821B930B5A
:1002C000A40BB50B84839583A683B7830DC0220F3F
:1002D000331F441F551F24833583468357838281F0
:1002E000938101979383828324813581468157814D
:1002F000DA01C9010197A109B1098F5F9F4FAF4F83
:10030000BF4328F30BC0918333822282EA0CFB1C8B
:100310000C1D1D1DE482F5820683178383E0808314
:10032000248135814681578157FF1AC0C901AA2708
:1003300097FDA095BA2F81709070A070B0705695FF
:10034000479537952795822B932BA42BB52B848328
:100350009583A683B7838281938101969383828359
:10036000DF0101C0D201CD01CDB7DEB7E2E10C94CF
:10037000DE0CA0E2B0E0EFEBF1E00C94CE0C698370
:100380007A838B839C832D833E834F835887E9E058
:10039000EE2EF12CEC0EFD1ECE010196B7010E944F
:1003A000CA048E010F5E1F4FCE010596B8010E9450
:1003B000CA048A8991E089278A8BC701B801AE01F6
:1003C000475E5F4F0E946D000E94F503A096E6E035
:1003D0000C94EA0CA0E2B0E0E0EFF1E00C94CE0C5B
:1003E00069837A838B839C832D833E834F835887D5
:1003F000F9E0EF2EF12CEC0EFD1ECE010196B701B7
:100400000E94CA048E010F5E1F4FCE010596B801EF
:100410000E94CA04C701B801AE01475E5F4F0E9447
:100420006D000E94F503A096E6E00C94EA0CA0E2B1
:10043000B0E0EDE1F2E00C94C20C69837A838B8327
:100440009C832D833E834F835887CE010196BE0146
:10045000675F7F4F0E94CA04CE010596BE016F5EA2
:100460007F4F0E94CA049985923088F08989823032
:10047000C8F0943019F4823051F404C0843029F467
:10048000923081F480E690E0C6C0923049F420E0DA
:100490009A858A89981321E02A87CE010996BBC0E4
:1004A000823049F420E09A858A89981321E02A8BCA
:1004B000CE014196B0C02D843E844F8458886D880B
:1004C0007E888F88988CEE24FF248701AA24BB2481
:1004D000650140E050E060E070E0E0E0F0E0C10184
:1004E00081709070892BE9F0E60CF71C081D191D2E
:1004F0009A01AB012A0D3B1D4C1D5D1D80E090E073
:10050000A0E0B0E0E614F7040805190520F481E046
:1005100090E0A0E0B0E0BA01A901480F591F6A1F9E
:100520007B1FAA0CBB1CCC1CDD1C97FE08C081E005
:1005300090E0A0E0B0E0A82AB92ACA2ADB2A3196C6
:10054000E032F10549F0660C771C881C991C569422
:10055000479437942794C3CFFA85EA892B893C893D
:100560008B859C85280F391F2E5F3F4F17C0CA010E
:1005700081709070892B61F016950795F794E79438
:1005800080E090E0A0E0B0E8E82AF92A0A2B1B2BD3
:1005900076956795579547952F5F3F4F77FDE7CF46
:1005A0000CC0440F551F661F771F17FD4160EE0CEE
:1005B000FF1C001F111F21503040403090E05907B0
:1005C00090E0690790E4790760F32B8F3C8FDB01A3
:1005D000CA018F779070A070B07080349105A1052A
:1005E000B10561F447FD0AC0E114F10401051105EC
:1005F00029F0405C5F4F6F4F7F4F40781A8EFE1797
:1006000011F081E08A8F4D8F5E8F6F8F78A383E02A
:10061000898FCE0149960E94F503A096E2E10C94E1
:10062000DE0CA8E1B0E0E7E1F3E00C94CE0C6983C6
:100630007A838B839C832D833E834F83588789E005
:10064000E82EF12CEC0EFD1ECE010196B7010E94A2
:10065000CA048E010F5E1F4FCE010596B8010E949D
:10066000CA048985823040F08989823028F0C70128
:10067000B8010E94420501C08FEF6896E6E00C9435
:10068000EA0CA8E1B0E0E7E4F3E00C94CE0C698357
:100690007A838B839C832D833E834F83588789E0A5
:1006A000E82EF12CEC0EFD1ECE010196B7010E9442
:1006B000CA048E010F5E1F4FCE010596B8010E943D
:1006C000CA048985823040F08989823028F0C701C8
:1006D000B8010E94420501C08FEF6896E6E00C94D5
:1006E000EA0CA8E1B0E0E7E7F3E00C94CE0C6983F4
:1006F0007A838B839C832D833E834F83588789E045
:10070000E82EF12CEC0EFD1ECE010196B7010E94E1
:10071000CA048E010F5E1F4FCE010596B8010E94DC
:10072000CA048985823040F08989823028F0C70167
:10073000B8010E94420501C081E06896E6E00C9491
:10074000EA0CACE0B0E0E7EAF3E00C94D20C698389
:100750007A838B839C83CE010196BE016B5F7F4FB2
:100760000E94CA048D81823061F1823050F1843060
:1007700021F48E81882351F12EC02F81388537FDD9
:1007800020C06E812F3131051CF06623F9F023C0A3
:100790008EE190E0821B930B29853A854B855C8521
:1007A00004C056954795379527958A95D2F76623C5
:1007B000B1F050954095309521953F4F4F4F5F4F89
:1007C0000EC020E030E040E050E009C02FEF3FEFE6
:1007D0004FEF5FE704C020E030E040E050E8B901AF
:1007E000CA012C96E2E00C94EE0CDF92EF92FF929D
:1007F0000F931F93FC01E480F58006811781D1805F
:100800008081823048F480E090E0A0E1B0E0E82A06
:10081000F92A0A2B1B2BA5C0843009F49FC0823013
:1008200021F4EE24FF24870105C0E114F104010541
:10083000110519F4E0E0F0E096C0628173819FEF4A
:10084000623879070CF05BC022E83FEF261B370BBC
:100850002A3131052CF020E030E040E050E02AC0A1
:10086000B801A701022E04C0769567955795479564
:100870000A94D2F781E090E0A0E0B0E004C0880FD5
:10088000991FAA1FBB1F2A95D2F70197A109B10989
:100890008E219F21A023B1230097A105B10521F04E
:1008A00081E090E0A0E0B0E09A01AB01282B392B69
:1008B0004A2B5B2BDA01C9018F779070A070B07062
:1008C00080349105A105B10539F427FF09C0205CEA
:1008D0003F4F4F4F5F4F04C0215C3F4F4F4F5F4F23
:1008E000E0E0F0E02030A0E03A07A0E04A07A0E412
:1008F0005A0710F0E1E0F0E079018A0127C0603882
:10090000710564F5FB01E158FF4FD801C7018F77EE
:100910009070A070B07080349105A105B10539F4D4
:10092000E7FE0DC080E490E0A0E0B0E004C08FE3FB
:1009300090E0A0E0B0E0E80EF91E0A1F1B1F17FFB1
:1009400005C016950795F794E794319687E01695BC
:100950000795F794E7948A95D1F705C0EE24FF2414
:100960008701EFEFF0E06E2F679566276795902F70
:100970009F77D794DD24D7948E2F8695492F462BC9
:10098000582F5D29B701CA011F910F91FF90EF9079
:10099000DF900895FC01DB01408151812281622FAB
:1009A0006F7770E0221F2227221F9381892F880FE3
:1009B000822B282F30E0991F9927991F11969C931D
:1009C000119721153105A9F54115510561057105ED
:1009D00011F482E037C082E89FEF13969C938E93C8
:1009E00012979A01AB0167E0220F331F441F551F76
:1009F0006A95D1F783E08C930DC0220F331F441FFB
:100A0000551F12968D919C911397019713969C9365
:100A10008E931297203080E0380780E0480780E40A
:100A2000580758F314962D933D934D935C93179765
:100A300008952F3F310579F4411551056105710580
:100A400019F484E08C93089564FF03C081E08C93D3
:100A500012C01C9210C02F57304013963C932E9317
:100A6000129783E08C9387E0440F551F661F771F12
:100A70008A95D1F7706414964D935D936D937C9332
:100A8000179708951F93DC01FB019C91923008F4A5
:100A900047C08081823008F443C0943051F41196ED
:100AA0001C91843099F58181682F70E0611B710978
:100AB0003FC0843021F0923031F48230B9F181812D
:100AC000882389F12DC011961C9111978230F1F085
:100AD00081811817D9F412962D913C911397828138
:100AE00093818217930794F028173907BCF0149666
:100AF0008D919D910D90BC91A02D248135814681D1
:100B00005781281739074A075B0718F4112341F06A
:100B10000AC082179307A407B50740F4112319F000
:100B200061E070E005C06FEF7FEF02C060E070E051
:100B3000CB011F910895DF93CF93CDB7DEB72797F1
:100B40000FB6F894DEBF0FBECDBF89836A834B8397
:100B50008981843008F0EEC08A81883008F0EAC0CC
:100B60008B81813009F06FC08981282F30E03F836D
:100B70002E838E819F818130910549F12E813F81A5
:100B8000223031052CF48E819F81009761F0D2C014
:100B90002E813F812230310571F18E819F8183301A
:100BA0009105E9F1C7C0AAE3B0E0EAE3F0E0808193
:100BB000482F8A81282F30E081E090E0022E02C089
:100BC000880F991F0A94E2F7842B8C93B3C0A7E394
:100BD000B0E0E7E3F0E08081482F8A81282F30E001
:100BE00081E090E0022E02C0880F991F0A94E2F77C
:100BF000842B8C939FC0A4E3B0E0E4E3F0E0808119
:100C0000482F8A81282F30E081E090E0022E02C038
:100C1000880F991F0A94E2F7842B8C938BC0A1E371
:100C2000B0E0E1E3F0E08081482F8A81282F30E0B6
:100C300081E090E0022E02C0880F991F0A94E2F72B
:100C4000842B8C9377C08B81882309F073C08981B2
:100C5000282F30E03D832C838C819D81813091054C
:100C600059F12C813D81223031052CF48C819D81FC
:100C7000009769F05FC02C813D812230310589F1F8
:100C80008C819D818330910509F440C053C0AAE353
:100C9000B0E0EAE3F0E08081482F8A81282F30E03D
:100CA00081E090E0022E02C0880F991F0A94E2F7BB
:100CB000809584238C933EC0A7E3B0E0E7E3F0E0A7
:100CC0008081482F8A81282F30E081E090E0022E39
:100CD00002C0880F991F0A94E2F7809584238C93B1
:100CE00029C0A4E3B0E0E4E3F0E08081482F8A81EA
:100CF000282F30E081E090E0022E02C0880F991F7B
:100D00000A94E2F7809584238C9314C0A1E3B0E0A9
:100D1000E1E3F0E08081482F8A81282F30E081E0F4
:100D200090E0022E02C0880F991F0A94E2F7809586
:100D300084238C9327960FB6F894DEBF0FBECDBFE9
:100D4000CF91DF910895DF93CF9300D000D0CDB73E
:100D5000DEB789836A838981843090F58981282F61
:100D600030E03C832B838B819C8181309105D1F0D5
:100D70002B813C81223031052CF48B819C810097A2
:100D800061F01EC02B813C812230310581F08B81C6
:100D90009C818330910581F013C0EAE3F0E08A8101
:100DA00080830EC0E7E3F0E08A81808309C0E4E33A
:100DB000F0E08A81808304C0E1E3F0E08A818083EF
:100DC0000F900F900F900F90CF91DF910895DF93C8
:100DD000CF93CDB7DEB727970FB6F894DEBF0FBE1F
:100DE000CDBF89836A834B838981843008F0EEC04C
:100DF0008A81883008F0EAC08B81813009F06FC0A9
:100E00008981282F30E03F832E838E819F8181301E
:100E1000910549F12E813F81223031052CF48E81DC
:100E20009F81009761F0D2C02E813F812230310531
:100E300071F18E819F8183309105E9F1C7C0ABE3E9
:100E4000B0E0EBE3F0E08081482F8A81282F30E08A
:100E500081E090E0022E02C0880F991F0A94E2F709
:100E6000842B8C93B3C0A8E3B0E0E8E3F0E080818A
:100E7000482F8A81282F30E081E090E0022E02C0C6
:100E8000880F991F0A94E2F7842B8C939FC0A5E3E7
:100E9000B0E0E5E3F0E08081482F8A81282F30E040
:100EA00081E090E0022E02C0880F991F0A94E2F7B9
:100EB000842B8C938BC0A2E3B0E0E2E3F0E080816E
:100EC000482F8A81282F30E081E090E0022E02C076
:100ED000880F991F0A94E2F7842B8C9377C08B813B
:100EE000882309F073C08981282F30E03D832C834B
:100EF0008C819D818130910559F12C813D81223079
:100F000031052CF48C819D81009769F05FC02C81A4
:100F10003D812230310589F18C819D81833091059D
:100F200009F440C053C0ABE3B0E0EBE3F0E08081F4
:100F3000482F8A81282F30E081E090E0022E02C005
:100F4000880F991F0A94E2F7809584238C933EC002
:100F5000A8E3B0E0E8E3F0E08081482F8A81282F01
:100F600030E081E090E0022E02C0880F991F0A94C1
:100F7000E2F7809584238C9329C0A5E3B0E0E5E3F4
:100F8000F0E08081482F8A81282F30E081E090E0D6
:100F9000022E02C0880F991F0A94E2F780958423DD
:100FA0008C9314C0A2E3B0E0E2E3F0E08081482F2C
:100FB0008A81282F30E081E090E0022E02C0880F65
:100FC000991F0A94E2F7809584238C9327960FB695
:100FD000F894DEBF0FBECDBFCF91DF910895DF93B0
:100FE000CF9300D000D0CDB7DEB789836A838981E3
:100FF000843090F58981282F30E03C832B838B81CE
:101000009C8181309105D1F02B813C8122303105CA
:101010002CF48B819C81009761F01EC02B813C8158
:101020002230310581F08B819C818330910581F0E4
:1010300013C0EBE3F0E08A8180830EC0E8E3F0E0C8
:101040008A81808309C0E5E3F0E08A81808304C05F
:10105000E2E3F0E08A8180830F900F900F900F9071
:10106000CF91DF910895DF93CF9300D000D000D0CF
:10107000CDB7DEB78A836B838A81843008F06EC077
:101080008B81883008F06AC08A81282F30E03E8347
:101090002D834D815E814130510541F18D819E81CD
:1010A0008230910534F42D813E812115310561F0A6
:1010B00052C04D815E814230510551F18D819E813A
:1010C00083309105B9F147C0E9E3F0E08081282F32
:1010D00030E08B81882F90E0A90102C0559547959B
:1010E0008A95E2F7CA018170898335C0E6E3F0E0B2
:1010F0008081282F30E08B81882F90E0A90102C0E9
:10110000559547958A95E2F7CA018170898323C076
:10111000E3E3F0E08081282F30E08B81882F90E09E
:10112000A90102C0559547958A95E2F7CA018170D9
:10113000898311C0E0E3F0E08081282F30E08B81CB
:10114000882F90E0A90102C0559547958A95E2F74E
:10115000CA018170898359815C8302C08FEF8C83BF
:101160008C8126960FB6F894DEBF0FBECDBFCF910F
:10117000DF910895DF93CF9300D000D0CDB7DEB7D5
:1011800089836A838981843008F072C08A818830BB
:1011900008F06EC08981282F30E03C832B838B813F
:1011A0009C818130910549F12B813C8122303105B0
:1011B0002CF48B819C81009761F05AC02B813C817B
:1011C0002230310571F18B819C8183309105E9F1E9
:1011D0004FC0ABE3B0E0EBE3F0E08081482F8A81C1
:1011E000282F30E081E090E0022E02C0880F991F86
:1011F0000A94E2F784278C933BC0A8E3B0E0E8E3CD
:10120000F0E08081482F8A81282F30E081E090E053
:10121000022E02C0880F991F0A94E2F784278C934C
:1012200027C0A5E3B0E0E5E3F0E08081482F8A81A4
:10123000282F30E081E090E0022E02C0880F991F35
:101240000A94E2F784278C9313C0A2E3B0E0E2E3B0
:10125000F0E08081482F8A81282F30E081E090E003
:10126000022E02C0880F991F0A94E2F784278C93FC
:101270000F900F900F900F90CF91DF910895DF9313
:10128000CF9300D00F92CDB7DEB7898389818430A8
:1012900008F03EC08981282F30E03B832A838A8171
:1012A0009B8181309105E9F02A813B812230310513
:1012B0002CF48A819B81009761F02AC02A813B81AE
:1012C00022303105B1F08A819B8183309105C9F0CC
:1012D0001FC0ABE3B0E0EBE3F0E0808180958C933E
:1012E00017C0A8E3B0E0E8E3F0E0808180958C933C
:1012F0000FC0A5E3B0E0E5E3F0E0808180958C933A
:1013000007C0A2E3B0E0E2E3F0E0808180958C9337
:101310000F900F900F90CF91DF910895DF93CF93AF
:10132000CDB7DEB70E94990980E090E0CF91DF91C0
:101330000895DF93CF93CDB7DEB76C970FB6F894CF
:10134000DEBF0FBECDBF80E064E041E00E949B05A0
:1013500080E065E041E00E949B0580E066E041E0BE
:101360000E949B0581E067E041E00E949B0580E0D0
:1013700064E040E00E94E70680E065E040E00E9413
:10138000E70680E066E040E00E94E70681E067E073
:1013900040E00E94E70680E090E0A8E4B3E4898F93
:1013A0009A8FAB8FBC8F698D7A8D8B8D9C8D20E051
:1013B00030E04AE755E40E941702DC01CB018D8B37
:1013C0009E8BAF8BB88F6D897E898F89988D20E039
:1013D00030E040E85FE30E94710388232CF481E051
:1013E00090E09C8B8B8B3FC06D897E898F89988D17
:1013F00020E03FEF4FE757E40E94110318164CF529
:10140000698D7A8D8B8D9C8D20E030E040E251E437
:101410000E941702DC01CB01BC01CD010E944100FA
:10142000DC01CB019C8B8B8B0FC080E991E09A8B08
:10143000898B89899A890197F1F79A8B898B8B8996
:101440009C8901979C8B8B8B8B899C89009769F772
:1014500014C06D897E898F89988D0E944100DC01BE
:10146000CB019C8B8B8B8B899C89988B8F878F85ED
:1014700098890197F1F7988B8F8780E064E041E0CD
:101480000E94E70680E065E041E00E94E70680E018
:1014900066E041E00E94E70681E067E041E00E94EB
:1014A000E70680E090E0A8E4B3E48B879C87AD87F3
:1014B000BE876B857C858D859E8520E030E04AE780
:1014C00055E40E941702DC01CB018F839887A9871E
:1014D000BA876F81788589859A8520E030E040E879
:1014E0005FE30E94710388232CF481E090E09E83E7
:1014F0008D833FC06F81788589859A8520E03FEF95
:101500004FE757E40E94110318164CF56B857C8554
:101510008D859E8520E030E040E251E40E94170274
:10152000DC01CB01BC01CD010E944100DC01CB01FB
:101530009E838D830FC080E991E09C838B838B8198
:101540009C810197F1F79C838B838D819E8101970C
:101550009E838D838D819E81009769F708CF6F816F
:10156000788589859A850E944100DC01CB019E83A4
:101570008D838D819E819A83898389819A81019748
:10158000F1F79A838983F3CEDF93CF93CDB7DEB79C
:101590002E970FB6F894DEBF0FBECDBF82E06FEF7F
:1015A0000E94A30682E00E943F0980E090E0A8E448
:1015B000B3E48B879C87AD87BE876B857C858D85E3
:1015C0009E8520E030E04AE755E40E941702DC01E6
:1015D000CB018F839887A987BA876F8178858985A2
:1015E0009A8520E030E040E85FE30E9471038823A1
:1015F0002CF481E090E09E838D833FC06F817885DD
:1016000089859A8520E03FEF4FE757E40E94110358
:1016100018164CF56B857C858D859E8520E030E025
:1016200040E251E40E941702DC01CB01BC01CD0174
:101630000E944100DC01CB019E838D830FC080E9B5
:1016400091E09C838B838B819C810197F1F79C8334
:101650008B838D819E8101979E838D838D819E8159
:10166000009769F79FCF6F81788589859A850E9459
:101670004100DC01CB019E838D838D819E819A8305
:10168000898389819A810197F1F79A8389838ACF27
:10169000DF93CF93CDB7DEB780E064E041E00E94F6
:1016A0009B0580E065E041E00E949B0580E066E0EC
:1016B00041E00E949B0581E067E041E00E949B05BC
:1016C00083E060E040E00E94E70683E061E040E004
:1016D0000E94E70683E061E041E00E94E70602C065
:1016E0000E94900B83E060E00E943308882349F455
:1016F00083E061E00E943308813091F302C00E94D0
:10170000290C83E060E00E943308813031F483E0EB
:1017100061E00E943308882391F30E94290CE2CFF4
:10172000DF93CF93CDB7DEB72E970FB6F894DEBF19
:101730000FBECDBF80E064E041E00E94E70680E09C
:1017400065E041E00E94E70680E066E041E00E943B
:10175000E70681E067E041E00E94E70680E090E074
:10176000A8E4B3E48B879C87AD87BE876B857C85B7
:101770008D859E8520E030E04AE755E40E941702FF
:10178000DC01CB018F839887A987BA876F81788521
:1017900089859A8520E030E040E85FE30E9471038C
:1017A00088232CF481E090E09E838D833FC06F817D
:1017B000788589859A8520E03FEF4FE757E40E94BE
:1017C000110318164CF56B857C858D859E8520E070
:1017D00030E040E251E40E941702DC01CB01BC0181
:1017E000CD010E944100DC01CB019E838D830FC09F
:1017F00080E991E09C838B838B819C810197F1F739
:101800009C838B838D819E8101979E838D838D81A7
:101810009E81009769F714C06F81788589859A85C4
:101820000E944100DC01CB019E838D838D819E81CE
:101830009A83898389819A810197F1F79A838983B1
:101840002E960FB6F894DEBF0FBECDBFCF91DF91BD
:101850000895DF93CF93CDB7DEB72E970FB6F894E8
:10186000DEBF0FBECDBF80E064E040E00E94E7062F
:1018700080E065E040E00E94E70680E066E040E04E
:101880000E94E70681E067E040E00E94E70680E012
:1018900090E0A8E4B3E48B879C87AD87BE876B8517
:1018A0007C858D859E8520E030E04AE755E40E94E6
:1018B0001702DC01CB018F839887A987BA876F81D4
:1018C000788589859A8520E030E040E85FE30E94D2
:1018D000710388232CF481E090E09E838D833FC0C8
:1018E0006F81788589859A8520E03FEF4FE757E43F
:1018F0000E94110318164CF56B857C858D859E859D
:1019000020E030E040E251E40E941702DC01CB010C
:10191000BC01CD010E944100DC01CB019E838D837F
:101920000FC080E991E09C838B838B819C81019720
:10193000F1F79C838B838D819E8101979E838D839C
:101940008D819E81009769F714C06F8178858985A4
:101950009A850E944100DC01CB019E838D838D819D
:101960009E819A83898389819A810197F1F79A836D
:1019700089832E960FB6F894DEBF0FBECDBFCF91F0
:10198000DF9108952F923F924F925F926F927F92D4
:101990008F929F92AF92BF92CF92DF92EF92FF927F
:1019A0000F931F93CF93DF93CDB7DEB7CA1BDB0B2B
:1019B0000FB6F894DEBF0FBECDBF09942A883988D0
:1019C00048885F846E847D848C849B84AA84B984D7
:1019D000C884DF80EE80FD800C811B81AA81B981E3
:1019E000CE0FD11D0FB6F894DEBF0FBECDBFED01F7
:0619F0000895F894FFCFFA
:0819F6000000000000000000E9
:00000001FF
