:100000000C942A000C9447000C9447000C94470071
:100010000C9447000C9447000C9447000C94470044
:100020000C9447000C9447000C9447000C94470034
:100030000C9447000C9447000C9447000C94470024
:100040000C9447000C9447000C9447000C94470014
:100050000C94470011241FBECFE5D8E0DEBFCDBF12
:1000600011E0A0E6B0E0E8E6F8E202C005900D92EB
:10007000A238B107D9F711E0A2E8B1E001C01D92A2
:10008000A338B107E1F70E9412130C9432140C94B8
:100090000000EF92FF920F931F937B018C0120E0F1
:1000A00030E040E05FE40E94F50388238CF0C80153
:1000B000B70120E030E040E05FE40E94C1010E940F
:1000C000B3049B01AC01205030404040504806C072
:1000D000C801B7010E94B3049B01AC01B901CA0178
:1000E0001F910F91FF90EF900895A0E0B0E0EBE733
:1000F000F0E00C94FB13DC012B01FA019C9192308F
:1001000008F439C1EB018881823008F433C194309E
:1001100069F4843009F02FC111969C91119789815F
:10012000981709F428C1A0E6B0E025C1843009F48D
:1001300021C18230A9F4923009F01DC19A01AD01AC
:1001400088E0EA010990AE01E90109929E0181501F
:10015000C1F7E201898111969C918923818308C1AD
:10016000923009F407C112962D903C901397EB0141
:100170008A819B811496AD90BD90CD90DC901797AD
:10018000EC80FD800E811F819101281B390BB90184
:1001900037FF04C066277727621B730B6032710537
:1001A0000CF061C0121613066CF537014801062EDB
:1001B00004C096948794779467940A94D2F721E0C8
:1001C00030E040E050E004C0220F331F441F551FB1
:1001D0006A95D2F721503040404050402E213F21B7
:1001E00040235123211531054105510521F021E01E
:1001F00030E040E050E079018A01E628F72808293C
:1002000019293CC0232BD1F1260E371E350146019A
:10021000062E04C096948794779467940A94D2F734
:1002200021E030E040E050E004C0220F331F441FC3
:10023000551F6A95D2F721503040404050402A2146
:100240003B214C215D21211531054105510521F04E
:1002500021E030E040E050E059016A01A628B728CB
:10026000C828D9280BC0821593052CF01C01AA249C
:10027000BB24650103C0EE24FF24870111969C91E5
:10028000D20111968C91981709F445C0992339F041
:10029000A80197012A193B094C095D0906C0A6016E
:1002A00095012E193F09400B510B57FD08C01182D3
:1002B0003382228224833583468357831DC081E0A5
:1002C00081833382228288279927DC01821B930B4A
:1002D000A40BB50B84839583A683B7830DC0220F2F
:1002E000331F441F551F24833583468357838281E0
:1002F000938101979383828324813581468157813D
:10030000DA01C9010197A109B1098F5F9F4FAF4F72
:10031000BF4328F30BC0918333822282EA0CFB1C7B
:100320000C1D1D1DE482F5820683178383E0808304
:10033000248135814681578157FF1AC0C901AA27F8
:1003400097FDA095BA2F81709070A070B0705695EF
:10035000479537952795822B932BA42BB52B848318
:100360009583A683B7838281938101969383828349
:10037000DF0101C0D201CD01CDB7DEB7E2E10C94BF
:100380001714A0E2B0E0E7ECF1E00C9407146983E5
:100390007A838B839C832D833E834F835887E9E048
:1003A000EE2EF12CEC0EFD1ECE010196B7010E943F
:1003B0002B068E010F5E1F4FCE010596B8010E94DD
:1003C0002B068A8991E089278A8BC701B801AE0183
:1003D000475E5F4F0E9475000E945605A096E6E0BA
:1003E0000C942314A0E2B0E0E8EFF1E00C940714C1
:1003F00069837A838B839C832D833E834F835887C5
:10040000F9E0EF2EF12CEC0EFD1ECE010196B701A6
:100410000E942B068E010F5E1F4FCE010596B8017C
:100420000E942B06C701B801AE01475E5F4F0E94D4
:1004300075000E945605A096E6E00C942314A0E2F5
:10044000B0E0E5E2F2E00C94FB1369837A838B83DE
:100450009C832D833E834F835887CE010196BE0136
:10046000675F7F4F0E942B06CE010596BE016F5E2F
:100470007F4F0E942B069985923088F089898230BF
:10048000C8F0943019F4823051F404C0843029F457
:10049000923081F480E690E0C6C0923049F420E0CA
:1004A0009A858A89981321E02A87CE010996BBC0D4
:1004B000823049F420E09A858A89981321E02A8BBA
:1004C000CE014196B0C02D843E844F8458886D88FB
:1004D0007E888F88988CEE24FF248701AA24BB2471
:1004E000650140E050E060E070E0E0E0F0E0C10174
:1004F00081709070892BE9F0E60CF71C081D191D1E
:100500009A01AB012A0D3B1D4C1D5D1D80E090E062
:10051000A0E0B0E0E614F7040805190520F481E036
:1005200090E0A0E0B0E0BA01A901480F591F6A1F8E
:100530007B1FAA0CBB1CCC1CDD1C97FE08C081E0F5
:1005400090E0A0E0B0E0A82AB92ACA2ADB2A3196B6
:10055000E032F10549F0660C771C881C991C569412
:10056000479437942794C3CFFA85EA892B893C892D
:100570008B859C85280F391F2E5F3F4F17C0CA01FE
:1005800081709070892B61F016950795F794E79428
:1005900080E090E0A0E0B0E8E82AF92A0A2B1B2BC3
:1005A00076956795579547952F5F3F4F77FDE7CF36
:1005B0000CC0440F551F661F771F17FD4160EE0CDE
:1005C000FF1C001F111F21503040403090E05907A0
:1005D00090E0690790E4790760F32B8F3C8FDB0193
:1005E000CA018F779070A070B07080349105A1051A
:1005F000B10561F447FD0AC0E114F10401051105DC
:1006000029F0405C5F4F6F4F7F4F40781A8EFE1786
:1006100011F081E08A8F4D8F5E8F6F8F78A383E01A
:10062000898FCE0149960E945605A096E2E10C946E
:100630001714A8E1B0E0EFE1F3E00C940314698330
:100640007A838B839C832D833E834F835887B9E0C5
:10065000EB2EF12CEC0EFD1ECE010196B7010E948F
:100660002B068E010F5E1F4FCE010596B8010E942A
:100670002B062985223008F47EC03989323010F4E7
:10068000B8017CC08A859A8989278A87243011F02D
:10069000223031F4231709F06EC060E670E06EC0BE
:1006A000343039F41D861E861F86188A1C861B86E8
:1006B00004C0323021F484E08987B7015FC02B8504
:1006C0003C858B899C89281B390B3C872B87ED84C3
:1006D000FE840F851889AD88BE88CF88D88CEA142F
:1006E000FB040C051D0540F4EE0CFF1C001F111F40
:1006F000215030403C872B8720E030E040E050E044
:1007000080E090E0A0E0B0E460E070E0EA14FB0478
:100710000C051D0540F0282B392B4A2B5B2BEA18C2
:10072000FB080C091D09B695A79597958795EE0CC2
:10073000FF1C001F111F6F5F7F4F6F31710531F775
:10074000DA01C9018F779070A070B0708034910584
:10075000A105B10561F427FD0AC0E114F10401050A
:10076000110529F0205C3F4F4F4F5F4F20782D87B8
:100770003E874F87588BBE01675F7F4FCB010E943A
:1007800056056896EAE00C941F14A8E1B0E0EBEC83
:10079000F3E00C94071469837A838B839C832D8305
:1007A0003E834F83588789E0E82EF12CEC0EFD1E26
:1007B000CE010196B7010E942B068E010F5E1F4FDE
:1007C000CE010596B8010E942B068985823040F043
:1007D0008989823028F0C701B8010E94A30601C0B0
:1007E0008FEF6896E6E00C942314A8E1B0E0EBEFFD
:1007F000F3E00C94071469837A838B839C832D83A5
:100800003E834F83588789E0E82EF12CEC0EFD1EC5
:10081000CE010196B7010E942B068E010F5E1F4F7D
:10082000CE010596B8010E942B068985823040F0E2
:100830008989823028F0C701B8010E94A30601C04F
:100840008FEF6896E6E00C942314A8E1B0E0EBE2A9
:10085000F4E00C94071469837A838B839C832D8343
:100860003E834F83588789E0E82EF12CEC0EFD1E65
:10087000CE010196B7010E942B068E010F5E1F4F1D
:10088000CE010596B8010E942B068985823040F082
:100890008989823028F0C701B8010E94A30601C0EF
:1008A00081E06896E6E00C942314A8E0B0E0EBE564
:1008B000F4E00C9404149B01AC0183E08983DA0119
:1008C000C9018827B7FD83959927AA27BB27B82E8A
:1008D000211531054105510519F482E089833AC09B
:1008E0008823A9F0203080E0380780E0480780E8BE
:1008F000580729F460E070E080E09FEC30C0EE24FF
:10090000FF248701E21AF30A040B150B02C07901D8
:100910008A018EE1C82ED12CDC82CB82ED82FE8250
:100920000F831887C801B7010E94070501971816A1
:10093000190684F4082E04C0EE0CFF1C001F111FC2
:100940000A94D2F7ED82FE820F831887C81AD90A5B
:10095000DC82CB82BA82CE0101960E94560528968F
:10096000E9E00C942014ACE0B0E0E9EBF4E00C9486
:100970000B1469837A838B839C83CE010196BE011D
:100980006B5F7F4F0E942B068D81823061F1823038
:1009900050F1843021F48E81882351F12EC02F81B3
:1009A000388537FD20C06E812F3131051CF066235C
:1009B000F9F023C08EE190E0821B930B29853A85E4
:1009C0004B855C8504C056954795379527958A9544
:1009D000D2F76623B1F050954095309521953F4F61
:1009E0004F4F5F4F0EC020E030E040E050E009C0C4
:1009F0002FEF3FEF4FEF5FE704C020E030E040E033
:100A000050E8B901CA012C96E2E00C942714EF9249
:100A1000FF920F931F937B018C0180E0E81680E02A
:100A2000F80681E0080780E0180788F48FEFE816E1
:100A3000F1040105110531F028F088E090E0A0E014
:100A4000B0E017C080E090E0A0E0B0E012C080E02D
:100A5000E81680E0F80680E0080781E0180728F033
:100A600088E190E0A0E0B0E004C080E190E0A0E088
:100A7000B0E020E230E040E050E0281B390B4A0BA8
:100A80005B0B04C016950795F794E7948A95D2F707
:100A9000F701E859FF4F8081281B310941095109AD
:100AA000C9011F910F91FF90EF900895DF92EF928F
:100AB000FF920F931F93FC01E480F580068117815C
:100AC000D1808081823048F480E090E0A0E1B0E005
:100AD000E82AF92A0A2B1B2BA5C0843009F49FC0F1
:100AE000823021F4EE24FF24870105C0E114F104D3
:100AF0000105110519F4E0E0F0E096C06281738110
:100B00009FEF623879070CF05BC022E83FEF261BAD
:100B1000370B2A3131052CF020E030E040E050E086
:100B20002AC0B801A701022E04C076956795579593
:100B300047950A94D2F781E090E0A0E0B0E004C0CD
:100B4000880F991FAA1FBB1F2A95D2F70197A109E9
:100B5000B1098E219F21A023B1230097A105B105E2
:100B600021F081E090E0A0E0B0E09A01AB01282BF9
:100B7000392B4A2B5B2BDA01C9018F779070A0705B
:100B8000B07080349105A105B10539F427FF09C083
:100B9000205C3F4F4F4F5F4F04C0215C3F4F4F4F92
:100BA0005F4FE0E0F0E02030A0E03A07A0E04A0725
:100BB000A0E45A0710F0E1E0F0E079018A0127C0D3
:100BC0006038710564F5FB01E158FF4FD801C7019A
:100BD0008F779070A070B07080349105A105B10539
:100BE00039F4E7FE0DC080E490E0A0E0B0E004C07E
:100BF0008FE390E0A0E0B0E0E80EF91E0A1F1B1F93
:100C000017FF05C016950795F794E794319687E08E
:100C100016950795F794E7948A95D1F705C0EE24C9
:100C2000FF248701EFEFF0E06E2F67956627679549
:100C3000902F9F77D794DD24D7948E2F8695492FB8
:100C4000462B582F5D29B701CA011F910F91FF90C4
:100C5000EF90DF900895FC01DB01408151812281FA
:100C6000622F6F7770E0221F2227221F9381892F26
:100C7000880F822B282F30E0991F9927991F1196F2
:100C80009C93119721153105A9F541155105610571
:100C9000710511F482E037C082E89FEF13969C93B0
:100CA0008E9312979A01AB0167E0220F331F441F06
:100CB000551F6A95D1F783E08C930DC0220F331F27
:100CC000441F551F12968D919C911397019713966F
:100CD0009C938E931297203080E0380780E048077D
:100CE00080E4580758F314962D933D934D935C93ED
:100CF000179708952F3F310579F441155105610586
:100D0000710519F484E08C93089564FF03C081E0B9
:100D10008C9312C01C9210C02F57304013963C93F6
:100D20002E93129783E08C9387E0440F551F661F24
:100D3000771F8A95D1F7706414964D935D936D93E8
:100D40007C93179708951F93DC01FB019C919230CF
:100D500008F447C08081823008F443C0943051F4D5
:100D600011961C91843099F58181682F70E0611B88
:100D700071093FC0843021F0923031F48230B9F1F2
:100D80008181882389F12DC011961C9111978230A1
:100D9000F1F081811817D9F412962D913C91139797
:100DA000828193818217930794F028173907BCF04A
:100DB00014968D919D910D90BC91A02D248135812B
:100DC00046815781281739074A075B0718F4112312
:100DD00041F00AC082179307A407B50740F4112316
:100DE00019F061E070E005C06FEF7FEF02C060E0D6
:100DF00070E0CB011F910895DF93CF93CDB7DEB79D
:100E000027970FB6F894DEBF0FBECDBF89836A83E4
:100E10004B838981843008F0EEC08A81883008F0E5
:100E2000EAC08B81813009F06FC08981282F30E0C2
:100E30003F832E838E819F818130910549F12E81E0
:100E40003F81223031052CF48E819F81009761F023
:100E5000D2C02E813F812230310571F18E819F8178
:100E600083309105E9F1C7C0AAE3B0E0EAE3F0E01E
:100E70008081482F8A81282F30E081E090E0022E87
:100E800002C0880F991F0A94E2F7842B8C93B3C099
:100E9000A7E3B0E0E7E3F0E08081482F8A81282FC4
:100EA00030E081E090E0022E02C0880F991F0A9482
:100EB000E2F7842B8C939FC0A4E3B0E0E4E3F0E07E
:100EC0008081482F8A81282F30E081E090E0022E37
:100ED00002C0880F991F0A94E2F7842B8C938BC071
:100EE000A1E3B0E0E1E3F0E08081482F8A81282F80
:100EF00030E081E090E0022E02C0880F991F0A9432
:100F0000E2F7842B8C9377C08B81882309F073C020
:100F10008981282F30E03D832C838C819D81813015
:100F2000910559F12C813D81223031052CF48C81C1
:100F30009D81009769F05FC02C813D812230310591
:100F400089F18C819D818330910509F440C053C0A3
:100F5000AAE3B0E0EAE3F0E08081482F8A81282FFD
:100F600030E081E090E0022E02C0880F991F0A94C1
:100F7000E2F7809584238C933EC0A7E3B0E0E7E3DB
:100F8000F0E08081482F8A81282F30E081E090E0D6
:100F9000022E02C0880F991F0A94E2F780958423DD
:100FA0008C9329C0A4E3B0E0E4E3F0E08081482F13
:100FB0008A81282F30E081E090E0022E02C0880F65
:100FC000991F0A94E2F7809584238C9314C0A1E3BF
:100FD000B0E0E1E3F0E08081482F8A81282F30E003
:100FE00081E090E0022E02C0880F991F0A94E2F778
:100FF000809584238C9327960FB6F894DEBF0FBE9E
:10100000CDBFCF91DF910895DF93CF9300D000D073
:10101000CDB7DEB789836A838981843090F5898171
:10102000282F30E03C832B838B819C81813091057C
:10103000D1F02B813C81223031052CF48B819C81B5
:10104000009761F01EC02B813C812230310581F078
:101050008B819C818330910581F013C0EAE3F0E03D
:101060008A8180830EC0E7E3F0E08A81808309C033
:10107000E4E3F0E08A81808304C0E1E3F0E08A8168
:1010800080830F900F900F900F90CF91DF91089574
:10109000DF93CF93CDB7DEB727970FB6F894DEBFB7
:1010A0000FBECDBF89836A834B838981843008F06A
:1010B000EEC08A81883008F0EAC08B81813009F067
:1010C0006FC08981282F30E03F832E838E819F81DE
:1010D0008130910549F12E813F81223031052CF478
:1010E0008E819F81009761F0D2C02E813F81223096
:1010F000310571F18E819F8183309105E9F1C7C07F
:10110000ABE3B0E0EBE3F0E08081482F8A81282F49
:1011100030E081E090E0022E02C0880F991F0A940F
:10112000E2F7842B8C93B3C0A8E3B0E0E8E3F0E0EF
:101130008081482F8A81282F30E081E090E0022EC4
:1011400002C0880F991F0A94E2F7842B8C939FC0EA
:10115000A5E3B0E0E5E3F0E08081482F8A81282F05
:1011600030E081E090E0022E02C0880F991F0A94BF
:10117000E2F7842B8C938BC0A2E3B0E0E2E3F0E0D3
:101180008081482F8A81282F30E081E090E0022E74
:1011900002C0880F991F0A94E2F7842B8C9377C0C2
:1011A0008B81882309F073C08981282F30E03D832B
:1011B0002C838C819D818130910559F12C813D8159
:1011C000223031052CF48C819D81009769F05FC03D
:1011D0002C813D812230310589F18C819D818330C4
:1011E000910509F440C053C0ABE3B0E0EBE3F0E09D
:1011F0008081482F8A81282F30E081E090E0022E04
:1012000002C0880F991F0A94E2F7809584238C937B
:101210003EC0A8E3B0E0E8E3F0E08081482F8A8197
:10122000282F30E081E090E0022E02C0880F991F45
:101230000A94E2F7809584238C9329C0A5E3B0E05B
:10124000E5E3F0E08081482F8A81282F30E081E0BB
:1012500090E0022E02C0880F991F0A94E2F7809551
:1012600084238C9314C0A2E3B0E0E2E3F0E0808139
:10127000482F8A81282F30E081E090E0022E02C0C2
:10128000880F991F0A94E2F7809584238C93279600
:101290000FB6F894DEBF0FBECDBFCF91DF9108959A
:1012A000DF93CF9300D000D0CDB7DEB789836A83B8
:1012B0008981843090F58981282F30E03C832B830D
:1012C0008B819C8181309105D1F02B813C81223032
:1012D00031052CF48B819C81009761F01EC02B811D
:1012E0003C812230310581F08B819C8183309105D6
:1012F00081F013C0EBE3F0E08A8180830EC0E8E365
:10130000F0E08A81808309C0E5E3F0E08A81808390
:1013100004C0E2E3F0E08A8180830F900F900F9089
:101320000F90CF91DF910895DF93CF9300D000D03D
:1013300000D0CDB7DEB78A836B838A81843008F012
:101340006EC08B81883008F06AC08A81282F30E017
:101350003E832D834D815E814130510541F18D8168
:101360009E818230910534F42D813E812115310515
:1013700061F052C04D815E814230510551F18D8145
:101380009E8183309105B9F147C0E9E3F0E08081A7
:10139000282F30E08B81882F90E0A90102C055955D
:1013A00047958A95E2F7CA018170898335C0E6E3E3
:1013B000F0E08081282F30E08B81882F90E0A90118
:1013C00002C0559547958A95E2F7CA0181708983D5
:1013D00023C0E3E3F0E08081282F30E08B81882F69
:1013E00090E0A90102C0559547958A95E2F7CA0198
:1013F0008170898311C0E0E3F0E08081282F30E024
:101400008B81882F90E0A90102C0559547958A9558
:10141000E2F7CA018170898359815C8302C08FEF32
:101420008C838C8126960FB6F894DEBF0FBECDBF9D
:10143000CF91DF910895DF93CF9300D000D0CDB747
:10144000DEB789836A838981843008F072C08A811B
:10145000883008F06EC08981282F30E03C832B83D0
:101460008B819C818130910549F12B813C81223017
:1014700031052CF48B819C81009761F05AC02B813F
:101480003C812230310571F18B819C818330910543
:10149000E9F14FC0ABE3B0E0EBE3F0E08081482F2F
:1014A0008A81282F30E081E090E0022E02C0880F70
:1014B000991F0A94E2F784278C933BC0A8E3B0E01D
:1014C000E8E3F0E08081482F8A81282F30E081E036
:1014D00090E0022E02C0880F991F0A94E2F7842739
:1014E0008C9327C0A5E3B0E0E5E3F0E08081482FCE
:1014F0008A81282F30E081E090E0022E02C0880F20
:10150000991F0A94E2F784278C9313C0A2E3B0E0FA
:10151000E2E3F0E08081482F8A81282F30E081E0EB
:1015200090E0022E02C0880F991F0A94E2F78427E8
:101530008C930F900F900F900F90CF91DF910895A3
:10154000DF93CF9300D00F92CDB7DEB78983898127
:10155000843008F03EC08981282F30E03B832A8305
:101560008A819B8181309105E9F02A813B8122307B
:1015700031052CF48A819B81009761F02AC02A8171
:101580003B8122303105B1F08A819B818330910506
:10159000C9F01FC0ABE3B0E0EBE3F0E080818095E1
:1015A0008C9317C0A8E3B0E0E8E3F0E08081809579
:1015B0008C930FC0A5E3B0E0E5E3F0E08081809577
:1015C0008C9307C0A2E3B0E0E2E3F0E08081809575
:1015D0008C930F900F900F90CF91DF910895DF9330
:1015E000CF9300D0CDB7DEB71A821BC08A81882F77
:1015F00090E0FC01E859FE4F908182E0692F41E0C4
:101600000E94FC068A81882F90E0FC01E859FE4F79
:10161000908182E0692F41E00E9448088A818F5FB3
:101620008A838A81843010F319821BC08981882FB4
:1016300090E0FC01E459FE4F908183E0692F40E087
:101640000E94FC068981882F90E0FC01E459FE4F3E
:10165000908183E0692F41E00E94480889818F5F73
:1016600089838981843010F30F900F90CF91DF919F
:101670000895DF93CF93CDB7DEB761970FB6F89497
:10168000DEBF0FBECDBF8FEF888B1F8696C08F85C4
:10169000882F90E0FC01E859FE4F80810E94230CC6
:1016A0008F85882F90E0FC01E859FE4F80810E94D1
:1016B000F10B898B89898F3F59F08F85882F90E0B6
:1016C000880F991F880F991F982F8989890F888BF8
:1016D00080E090E0A0E0B0E48B879C87AD87BE8778
:1016E0006B857C858D859E8520E030E04AE755E45A
:1016F0000E941F02DC01CB018F839887A987BA87DC
:101700006F81788589859A8520E030E040E85FE345
:101710000E94250488232CF481E090E09E838D8331
:101720003FC06F81788589859A8520E03FEF4FE73C
:1017300057E40E94C50318164CF56B857C858D8592
:101740009E8520E030E040E251E40E941F02DC016F
:10175000CB01BC01CD010E944900DC01CB019E837D
:101760008D830FC080E991E09C838B838B819C816A
:101770000197F1F79C838B838D819E8101979E83D6
:101780008D838D819E81009769F714C06F81788564
:1017900089859A850E944900DC01CB019E838D8357
:1017A0008D819E819A83898389819A810197F1F73E
:1017B0009A8389838F858F5F8F878F85843008F424
:1017C00066CF8889882F90E0FC01EF58FE4F80811A
:1017D00061960FB6F894DEBF0FBECDBFCF91DF91FB
:1017E0000895DF93CF9300D00F92CDB7DEB78A83F1
:1017F000198218C08981882F90E0FC01E459FE4FBE
:10180000908183E0692F0E949409882341F482E04B
:101810006A8141E00E94480889818B830DC08981DB
:101820008F5F89838981843028F382E06A8141E077
:101830000E9448088FEF8B838B810F900F900F9041
:10184000CF91DF910895DF93CF930F92CDB7DEB79D
:10185000898382E0698140E00E9448080F90CF911F
:10186000DF9108950F931F93DF93CF93CDB7DEB72A
:10187000C654D0400FB6F894DEBF0FBECDBF0E9455
:10188000B80EFE01ED5BFF4F80E090E0A8ECB2E403
:1018900080839183A283B3838E01015C1F4FFE017D
:1018A000ED5BFF4F608171818281938120E030E0A8
:1018B0004AE755E40E941F02DC01CB01F801808356
:1018C0009183A283B383FE01FF966081718182813F
:1018D000938120E030E040E85FE30E942504882304
:1018E0002CF481E090E09EAF8DAF46C0FE01FF96E4
:1018F000608171818281938120E03FEF4FE757E45F
:101900000E94C503181664F5FE01ED5BFF4F608170
:1019100071818281938120E030E040E251E40E94B5
:101920001F02DC01CB01BC01CD010E944900DC019A
:10193000CB019EAF8DAF0FC080E991E09CAF8BAF24
:101940008BAD9CAD0197F1F79CAF8BAF8DAD9EAD8C
:1019500001979EAF8DAF8DAD9EAD009769F716C014
:10196000FE01FF9660817181828193810E9449000E
:10197000DC01CB019EAF8DAF8DAD9EAD9AAF89AF2F
:1019800089AD9AAD0197F1F79AAF89AF80E20E94D5
:101990006C0F80E20E946C0F80E80E946C0F80E068
:1019A00090E0A0E8BFE38DAB9EABAFABB8AF6DA945
:1019B0007EA98FA998AD20E030E04AE755E40E9467
:1019C0001F02DC01CB0189AB9AABABABBCAB69A905
:1019D0007AA98BA99CA920E030E040E85FE30E944F
:1019E000250488232CF481E090E098AB8FA73FC0BA
:1019F00069A97AA98BA99CA920E03FEF4FE757E49A
:101A00000E94C50318164CF56DA97EA98FA998AD43
:101A100020E030E040E251E40E941F02DC01CB01F3
:101A2000BC01CD010E944900DC01CB0198AB8FA71E
:101A30000FC080E991E09EA78DA78DA59EA5019777
:101A4000F1F79EA78DA78FA598A9019798AB8FA7AF
:101A50008FA598A9009769F714C069A97AA98BA9DD
:101A60009CA90E944900DC01CB0198AB8FA78FA5F0
:101A700098A99CA78BA78BA59CA50197F1F79CA77C
:101A80008BA780E00E946C0F80EC0E946C0F80E0BE
:101A900090E0A0E8BFE38FA398A7A9A7BAA76FA17A
:101AA00078A589A59AA520E030E04AE755E40E9490
:101AB0001F02DC01CB018BA39CA3ADA3BEA36BA132
:101AC0007CA18DA19EA120E030E040E85FE30E9470
:101AD000250488232CF481E090E09AA389A33FC0D9
:101AE0006BA17CA18DA19EA120E03FEF4FE757E4C1
:101AF0000E94C50318164CF56FA178A589A59AA573
:101B000020E030E040E251E40E941F02DC01CB0102
:101B1000BC01CD010E944900DC01CB019AA389A33D
:101B20000FC080E991E098A38F8F8F8D98A10197C6
:101B3000F1F798A38F8F89A19AA101979AA389A3FE
:101B400089A19AA1009769F714C06BA17CA18DA10E
:101B50009EA10E944900DC01CB019AA389A389A11F
:101B60009AA19E8F8D8F8D8D9E8D0197F1F79E8FFF
:101B70008D8F80E00E946C0F80E10E946C0F80E0EE
:101B800090E0A0E0B0E4898F9A8FAB8FBC8F698D15
:101B90007A8D8B8D9C8D20E030E04AE755E40E94E1
:101BA0001F02DC01CB018D8B9E8BAF8BB88F6D89B3
:101BB0007E898F89988D20E030E040E85FE30E94C5
:101BC000250488232CF481E090E09C8B8B8B3FC014
:101BD0006D897E898F89988D20E03FEF4FE757E42C
:101BE0000E94C50318164CF5698D7A8D8B8D9C8DDE
:101BF00020E030E040E251E40E941F02DC01CB0112
:101C0000BC01CD010E944900DC01CB019C8B8B8B78
:101C10000FC080E991E09A8B898B89899A89019715
:101C2000F1F79A8B898B8B899C8901979C8B8B8B85
:101C30008B899C89009769F714C06D897E898F898B
:101C4000988D0E944900DC01CB019C8B8B8B8B898A
:101C50009C89988B8F878F8598890197F1F7988B4E
:101C60008F8780E00E946C0F80E60E946C0F81E0FD
:101C70008093820180E090E0A0E0B0E48B879C87B5
:101C8000AD87BE876B857C858D859E8520E030E0A5
:101C90004AE755E40E941F02DC01CB018F8398873D
:101CA000A987BA876F81788589859A8520E030E099
:101CB00040E85FE30E94250488232CF481E090E053
:101CC0009E838D833FC06F81788589859A8520E0CA
:101CD0003FEF4FE757E40E94C50318164CF56B859C
:101CE0007C858D859E8520E030E040E251E40E94B5
:101CF0001F02DC01CB01BC01CD010E944900DC01C7
:101D0000CB019E838D830FC080E991E09C838B8300
:101D10008B819C810197F1F79C838B838D819E81C0
:101D200001979E838D838D819E81009769F714C0F2
:101D30006F81788589859A850E944900DC01CB01F5
:101D40009E838D838D819E819A83898389819A81E7
:101D50000197F1F79A838983CA5BDF4F0FB6F89436
:101D6000DEBF0FBECDBFCF91DF911F910F910895C0
:101D7000DF93CF93CDB7DEB781E060E041E00E9412
:101D8000FC0681E061E041E00E94FC0681E062E047
:101D900041E00E94FC0681E064E041E00E94FC0614
:101DA00080E062E041E00E94FC0680E063E041E008
:101DB0000E94FC06CF91DF910895DF93CF93CDB7BA
:101DC000DEB72E970FB6F894DEBF0FBECDBF80E012
:101DD00062E041E00E94480880E090E0A0E0B0E4CA
:101DE0008B879C87AD87BE876B857C858D859E851F
:101DF00020E030E04AE755E40E941F02DC01CB01FD
:101E00008F839887A987BA876F81788589859A8516
:101E100020E030E040E85FE30E94250488232CF4B2
:101E200081E090E09E838D833FC06F8178858985B6
:101E30009A8520E03FEF4FE757E40E94C50318164C
:101E40004CF56B857C858D859E8520E030E040E2F9
:101E500051E40E941F02DC01CB01BC01CD010E94B4
:101E60004900DC01CB019E838D830FC080E991E0A6
:101E70009C838B838B819C810197F1F79C838B835F
:101E80008D819E8101979E838D838D819E81009798
:101E900069F714C06F81788589859A850E94490009
:101EA000DC01CB019E838D838D819E819A83898302
:101EB00089819A810197F1F79A83898380E062E0B2
:101EC00040E00E9448082E960FB6F894DEBF0FBE81
:101ED000CDBFCF91DF910895DF93CF930F92CDB710
:101EE000DEB7898380E063E040E00E944808898192
:101EF00082958F70982F917081E060E0492F0E9449
:101F000048088981829586958770982F917081E025
:101F100061E0492F0E9448088981829586958695BF
:101F20008370982F917081E062E0492F0E944808E9
:101F30008981982F991F9927991F81E064E0492F83
:101F40000E9448080E94DD0E80918201882341F1A1
:101F50008981982F917081E060E0492F0E944808A4
:101F600089818695982F917081E061E0492F0E94C8
:101F70004808898186958695982F917081E062E066
:101F8000492F0E9448088981869586958695982FC5
:101F9000917081E064E0492F0E9448080E94DD0EA4
:101FA0000F90CF91DF910895DF93CF930F92CDB72C
:101FB000DEB7898380E063E041E00E9448088981C0
:101FC00082958F70982F917081E060E0492F0E9478
:101FD00048088981829586958770982F917081E055
:101FE00061E0492F0E9448088981829586958695EF
:101FF0008370982F917081E062E0492F0E94480819
:102000008981982F991F9927991F81E064E0492FB2
:102010000E9448080E94DD0E8981982F917081E00E
:1020200060E0492F0E94480889818695982F917019
:1020300081E061E0492F0E94480889818695869554
:10204000982F917081E062E0492F0E9448088981B1
:10205000869586958695982F917081E064E0492F4A
:102060000E9448080E94DD0E0F90CF91DF910895E5
:10207000DF93CF93CDB7DEB781E00E946C0FCF9195
:10208000DF910895DF93CF9300D00F92CDB7DEB7E5
:102090008A836B838B81898308C080E06A81498150
:1020A0000E947C1089818F5F898389818431A8F3A4
:1020B0000F900F900F90CF91DF910895DF93CF9302
:1020C00000D0CDB7DEB789836A8380E269814A8117
:1020D0000E947C100F900F90CF91DF910895DF93B5
:1020E000CF930F92CDB7DEB7898389810E94D40F39
:1020F0000F90CF91DF910895DF93CF9300D00F928F
:10210000CDB7DEB789836A834B838A816B810E9456
:10211000D41089810E946F100F900F900F90CF9173
:10212000DF910895DF93CF9300D00F92CDB7DEB744
:102130009B838A8319820EC08981282F30E08A818F
:102140009B81FC01E20FF31F80810E94D40F8981E3
:102150008F5F89838981282F30E08A819B81FC01F0
:10216000E20FF31F8081882339F70F900F900F90B3
:10217000CF91DF910895DF93CF9300D000D0CDB7FA
:10218000DEB79A8389836B834C838B816C810E9439
:10219000D41089819A810E9492100F900F900F9015
:1021A0000F90CF91DF910895DF93CF93CDB7DEB736
:1021B0006B970FB6F894DEBF0FBECDBF8A8F6B8FC3
:1021C000198E8A8D882321F48B8D8058898F14C0B5
:1021D0008A8D813021F48B8D8054898F0DC08A8D3A
:1021E000823021F48B8D8C56898F06C08A8D833086
:1021F00019F48B8D8C52898F898D8068898F898D98
:102200000E946C0F80E090E0A0E2B2E48D8B9E8B88
:10221000AF8BB88F6D897E898F89988D2BEA3AEACA
:102220004AEA50E40E941F02DC01CB01898B9A8BA1
:10223000AB8BBC8B69897A898B899C8920E030E0E3
:1022400040E85FE30E94250488231CF481E0888B2A
:1022500091C069897A898B899C8920E030E04FE7B9
:1022600053E40E94C50318160CF07BC06D897E896B
:102270008F89988D20E030E04AE754E40E941903EA
:10228000DC01CB018C879D87AE87BF876C857D8500
:102290008E859F8520E030E04AE755E40E941F02CA
:1022A000DC01CB0188879987AA87BB8768857985F8
:1022B0008A859B8520E030E040E85FE30E942504AA
:1022C00088232CF481E090E09F838E833FC0688553
:1022D00079858A859B8520E03FEF4FE757E40E9490
:1022E000C50318164CF56C857D858E859F8520E08D
:1022F00030E040E251E40E941F02DC01CB01BC014E
:10230000CD010E944900DC01CB019F838E830FC069
:1023100080E991E09D838C838C819D810197F1F709
:102320009D838C838E819F8101979F838E838E8175
:102330009F81009769F724C0688579858A859B8588
:102340000E944900DC01CB019F838E838E819F8197
:102350009B838A838A819B810197F1F79B838A8380
:102360000FC069897A898B899C890E944900DC01A8
:10237000CB01888B8889898389818A95F1F7898344
:102380006B960FB6F894DEBF0FBECDBFCF91DF9135
:1023900008950F931F93DF93CF93CDB7DEB7609768
:1023A0000FB6F894DEBF0FBECDBF6D877E878F87D7
:1023B000988B8D859E85AF85B889BB2394F48DE27B
:1023C0000E94D40F8D859E85AF85B889B095A09564
:1023D000909581959F4FAF4FBF4F8D879E87AF8759
:1023E000B88B8AE0FE013396DF01982F1D929A95F3
:1023F000E9F71A822DC08A81082F10E08D859E850D
:10240000AF85B8892AE030E040E050E0BC01CD0162
:102410000E94BE13DC01CB01282FCE010396FC01E4
:10242000E00FF11F20838D859E85AF85B8892AE056
:1024300030E040E050E0BC01CD010E94BE13DA0163
:10244000C9018D879E87AF87B88B8A818F5F8A830A
:102450008D859E85AF85B889181619061A061B0644
:1024600054F28A81882311F481E08A838A818983E6
:1024700012C08981882F90E09C0121503040CE010C
:102480000396FC01E20FF31F8081805D0E94D40F50
:102490008981815089838981882359F760960FB695
:1024A000F894DEBF0FBECDBFCF91DF911F910F918A
:1024B0000895DF93CF93CDB7DEB72D970FB6F8947D
:1024C000DEBF0FBECDBF6A877B878C879D876A85FD
:1024D0007B858C859D850E94B304DC01CB018E83B6
:1024E0009F83A887B9876E817F81888599850E949F
:1024F00055049B01AC016A857B858C859D850E9476
:10250000C101DC01CB018A839B83AC83BD838E81B7
:102510009F81A885B985BC01CD010E94C9118EE2B9
:102520000E946F106A817B818C819D8120E030E068
:1025300048EC52E40E941F02DC01CB01BC01CD013A
:102540000E944900DC01CB0189838981882F90E0BA
:10255000A0E0B0E0BC01CD010E94C9112D960FB6DC
:10256000F894DEBF0FBECDBFCF91DF910895DF930A
:10257000CF93CDB7DEB727970FB6F894DEBF0FBE67
:10258000CDBF8B837D836C834E832F838C819D8114
:10259000009759F18B81882F90E0880F991F880F41
:1025A000991F880F991F8A8319828A8180648A8380
:1025B0008A810E946C0F19820EC08981282F30E019
:1025C0008C819D81FC01E20FF31F80810E94D40F5A
:1025D00089818F5F89838981883078F38E816F81CB
:1025E0000E94D4108B810E94D40F27960FB6F894C6
:1025F000DEBF0FBECDBFCF91DF910895DF93CF93A4
:10260000CDB7DEB78CE00E946C0FCF91DF910895BB
:10261000DF93CF93CDB7DEB78CE00E946C0FCF91E4
:10262000DF910895DF93CF93CDB7DEB70E941D13DE
:1026300080E090E0CF91DF910895DF93CF93CDB705
:10264000DEB780E060E041E00E94FC060E94EF0AF5
:102650000E94320C0E942D13FDCFDF93CF93CDB794
:10266000DEB72E970FB6F894DEBF0FBECDBF0E9427
:10267000390B80937001809170018823C1F38091A0
:1026800070010E946F1080E090E0A8E4B3E48B87B3
:102690009C87AD87BE876B857C858D859E8520E078
:1026A00030E04AE755E40E941F02DC01CB018F8332
:1026B0009887A987BA876F81788589859A8520E070
:1026C00030E040E85FE30E94250488232CF481E099
:1026D00090E09E838D833FC06F81788589859A8540
:1026E00020E03FEF4FE757E40E94C50318164CF572
:1026F0006B857C858D859E8520E030E040E251E44D
:102700000E941F02DC01CB01BC01CD010E944900E7
:10271000DC01CB019E838D830FC080E991E09C8317
:102720008B838B819C810197F1F79C838B838D81B7
:102730009E8101979E838D838D819E81009769F78D
:1027400014C06F81788589859A850E944900DC01D3
:10275000CB019E838D838D819E819A83898389811C
:102760009A810197F1F79A8389832E960FB6F89490
:10277000DEBF0FBECDBFCF91DF91089597FB092E2D
:1027800005260ED057FD04D014D00AD0001C38F412
:1027900050954095309521953F4F4F4F5F4F08958D
:1027A000F6F790958095709561957F4F8F4F9F4F6D
:1027B0000895A1E21A2EAA1BBB1BFD010DC0AA1F82
:1027C000BB1FEE1FFF1FA217B307E407F50720F09A
:1027D000A21BB30BE40BF50B661F771F881F991F15
:1027E0001A9469F760957095809590959B01AC015E
:1027F000BD01CF0108952F923F924F925F926F9249
:102800007F928F929F92AF92BF92CF92DF92EF9280
:10281000FF920F931F93CF93DF93CDB7DEB7CA1B01
:10282000DB0B0FB6F894DEBF0FBECDBF09942A882C
:10283000398848885F846E847D848C849B84AA84D4
:10284000B984C884DF80EE80FD800C811B81AA8161
:10285000B981CE0FD11D0FB6F894DEBF0FBECDBF2C
:08286000ED010895F894FFCF8B
:10286800000000000000000000010202030303034F
:102878000404040404040404050505050505050508
:1028880005050505050505050606060606060606E8
:1028980006060606060606060606060606060606D0
:1028A80006060606060606060707070707070707B8
:1028B80007070707070707070707070707070707A0
:1028C8000707070707070707070707070707070790
:1028D8000707070707070707070707070707070780
:1028E8000707070707070707080808080808080868
:1028F8000808080808080808080808080808080850
:10290800080808080808080808080808080808083F
:10291800080808080808080808080808080808082F
:10292800080808080808080808080808080808081F
:10293800080808080808080808080808080808080F
:1029480008080808080808080808080808080808FF
:1029580008080808080808080808080808080808EF
:1029680008080808080808080504030207060503FC
:10297800FF3738392F3435362A3132332D43303D3D
:022988002B0022
:00000001FF
