:100000000C942A000C9434000C9434000C943400AA
:100010000C9434000C9434000C9434000C94340090
:100020000C9434000C9434000C9434000C94340080
:100030000C9434000C9434000C9434000C94340070
:100040000C9434000C9434000C9434000C94340060
:100050000C94340011241FBECFE5D8E0DEBFCDBF25
:100060000E9459000C946C000C940000DF93CF9315
:10007000CDB7DEB7EAE3F0E080E78083E7E3F0E0C6
:1000800080E88083E4E3F0E01082E1E3F0E01082B6
:10009000EBE3F0E080E78083E8E3F0E080E8808352
:1000A000E5E3F0E01082E2E3F0E01082CF91DF912F
:1000B0000895DF93CF93CDB7DEB70E94640080E050
:1000C00090E0CF91DF910895DF93CF93CDB7DEB766
:0C00D0000E9436000000FECFF894FFCF25
:00000001FF
