:100000000C942A000C9434000C9434000C943400AA
:100010000C9434000C9434000C9434000C94340090
:100020000C9434000C9434000C9434000C94340080
:100030000C9434000C9434000C9434000C94340070
:100040000C9434000C9434000C9434000C94340060
:100050000C94340011241FBECFE5D8E0DEBFCDBF25
:100060000E9446000C944C000C940000DF93CF9348
:10007000CDB7DEB77894CF91DF910895DF93CF931A
:10008000CDB7DEB7F894CF91DF910895DF93CF938A
:0C009000CDB7DEB70000FECFF894FFCF24
:00000001FF
