:100000000C942A000C9447000C9447000C94470071
:100010000C9447000C9447000C9447000C94470044
:100020000C9447000C9447000C9447000C94470034
:100030000C9447000C9447000C9447000C94470024
:100040000C9447000C9447000C9447000C94470014
:100050000C94470011241FBECFE5D8E0DEBFCDBF12
:1000600013E0A0E6B0E0E8EFFDE502C005900D92D8
:10007000A437B107D9F713E0A4E7B3E001C01D929C
:10008000A537B107E1F70E94AA110C94FA2E0C943F
:100090000000EF92FF920F931F937B018C0120E0F1
:1000A00030E040E05FE40E94F50388238CF0C80153
:1000B000B70120E030E040E05FE40E94C1010E940F
:1000C000B3049B01AC01205030404040504806C072
:1000D000C801B7010E94B3049B01AC01B901CA0178
:1000E0001F910F91FF90EF900895A0E0B0E0EBE733
:1000F000F0E00C94C32EDC012B01FA019C919230AC
:1001000008F439C1EB018881823008F433C194309E
:1001100069F4843009F02FC111969C91119789815F
:10012000981709F428C1ACEEB1E025C1843009F478
:1001300021C18230A9F4923009F01DC19A01AD01AC
:1001400088E0EA010990AE01E90109929E0181501F
:10015000C1F7E201898111969C918923818308C1AD
:10016000923009F407C112962D903C901397EB0141
:100170008A819B811496AD90BD90CD90DC901797AD
:10018000EC80FD800E811F819101281B390BB90184
:1001900037FF04C066277727621B730B6032710537
:1001A0000CF061C0121613066CF537014801062EDB
:1001B00004C096948794779467940A94D2F721E0C8
:1001C00030E040E050E004C0220F331F441F551FB1
:1001D0006A95D2F721503040404050402E213F21B7
:1001E00040235123211531054105510521F021E01E
:1001F00030E040E050E079018A01E628F72808293C
:1002000019293CC0232BD1F1260E371E350146019A
:10021000062E04C096948794779467940A94D2F734
:1002200021E030E040E050E004C0220F331F441FC3
:10023000551F6A95D2F721503040404050402A2146
:100240003B214C215D21211531054105510521F04E
:1002500021E030E040E050E059016A01A628B728CB
:10026000C828D9280BC0821593052CF01C01AA249C
:10027000BB24650103C0EE24FF24870111969C91E5
:10028000D20111968C91981709F445C0992339F041
:10029000A80197012A193B094C095D0906C0A6016E
:1002A00095012E193F09400B510B57FD08C01182D3
:1002B0003382228224833583468357831DC081E0A5
:1002C00081833382228288279927DC01821B930B4A
:1002D000A40BB50B84839583A683B7830DC0220F2F
:1002E000331F441F551F24833583468357838281E0
:1002F000938101979383828324813581468157813D
:10030000DA01C9010197A109B1098F5F9F4FAF4F72
:10031000BF4328F30BC0918333822282EA0CFB1C7B
:100320000C1D1D1DE482F5820683178383E0808304
:10033000248135814681578157FF1AC0C901AA27F8
:1003400097FDA095BA2F81709070A070B0705695EF
:10035000479537952795822B932BA42BB52B848318
:100360009583A683B7838281938101969383828349
:10037000DF0101C0D201CD01CDB7DEB7E2E10C94BF
:10038000DF2EA0E2B0E0E7ECF1E00C94CF2E698321
:100390007A838B839C832D833E834F835887E9E048
:1003A000EE2EF12CEC0EFD1ECE010196B7010E943F
:1003B0002B068E010F5E1F4FCE010596B8010E94DD
:1003C0002B068A8991E089278A8BC701B801AE0183
:1003D000475E5F4F0E9475000E945605A096E6E0BA
:1003E0000C94EB2EA0E2B0E0E8EFF1E00C94CF2EFD
:1003F00069837A838B839C832D833E834F835887C5
:10040000F9E0EF2EF12CEC0EFD1ECE010196B701A6
:100410000E942B068E010F5E1F4FCE010596B8017C
:100420000E942B06C701B801AE01475E5F4F0E94D4
:1004300075000E945605A096E6E00C94EB2EA0E213
:10044000B0E0E5E2F2E00C94C32E69837A838B83FB
:100450009C832D833E834F835887CE010196BE0136
:10046000675F7F4F0E942B06CE010596BE016F5E2F
:100470007F4F0E942B069985923088F089898230BF
:10048000C8F0943019F4823051F404C0843029F457
:10049000923081F48CEE91E0C6C0923049F420E0B5
:1004A0009A858A89981321E02A87CE010996BBC0D4
:1004B000823049F420E09A858A89981321E02A8BBA
:1004C000CE014196B0C02D843E844F8458886D88FB
:1004D0007E888F88988CEE24FF248701AA24BB2471
:1004E000650140E050E060E070E0E0E0F0E0C10174
:1004F00081709070892BE9F0E60CF71C081D191D1E
:100500009A01AB012A0D3B1D4C1D5D1D80E090E062
:10051000A0E0B0E0E614F7040805190520F481E036
:1005200090E0A0E0B0E0BA01A901480F591F6A1F8E
:100530007B1FAA0CBB1CCC1CDD1C97FE08C081E0F5
:1005400090E0A0E0B0E0A82AB92ACA2ADB2A3196B6
:10055000E032F10549F0660C771C881C991C569412
:10056000479437942794C3CFFA85EA892B893C892D
:100570008B859C85280F391F2E5F3F4F17C0CA01FE
:1005800081709070892B61F016950795F794E79428
:1005900080E090E0A0E0B0E8E82AF92A0A2B1B2BC3
:1005A00076956795579547952F5F3F4F77FDE7CF36
:1005B0000CC0440F551F661F771F17FD4160EE0CDE
:1005C000FF1C001F111F21503040403090E05907A0
:1005D00090E0690790E4790760F32B8F3C8FDB0193
:1005E000CA018F779070A070B07080349105A1051A
:1005F000B10561F447FD0AC0E114F10401051105DC
:1006000029F0405C5F4F6F4F7F4F40781A8EFE1786
:1006100011F081E08A8F4D8F5E8F6F8F78A383E01A
:10062000898FCE0149960E945605A096E2E10C946E
:10063000DF2EA8E1B0E0EFE1F3E00C94CB2E69836C
:100640007A838B839C832D833E834F835887B9E0C5
:10065000EB2EF12CEC0EFD1ECE010196B7010E948F
:100660002B068E010F5E1F4FCE010596B8010E942A
:100670002B062985223008F47EC03989323010F4E7
:10068000B8017CC08A859A8989278A87243011F02D
:10069000223031F4231709F06EC06CEE71E06EC0A9
:1006A000343039F41D861E861F86188A1C861B86E8
:1006B00004C0323021F484E08987B7015FC02B8504
:1006C0003C858B899C89281B390B3C872B87ED84C3
:1006D000FE840F851889AD88BE88CF88D88CEA142F
:1006E000FB040C051D0540F4EE0CFF1C001F111F40
:1006F000215030403C872B8720E030E040E050E044
:1007000080E090E0A0E0B0E460E070E0EA14FB0478
:100710000C051D0540F0282B392B4A2B5B2BEA18C2
:10072000FB080C091D09B695A79597958795EE0CC2
:10073000FF1C001F111F6F5F7F4F6F31710531F775
:10074000DA01C9018F779070A070B0708034910584
:10075000A105B10561F427FD0AC0E114F10401050A
:10076000110529F0205C3F4F4F4F5F4F20782D87B8
:100770003E874F87588BBE01675F7F4FCB010E943A
:1007800056056896EAE00C94E72EA8E1B0E0EBECA1
:10079000F3E00C94CF2E69837A838B839C832D8323
:1007A0003E834F83588789E0E82EF12CEC0EFD1E26
:1007B000CE010196B7010E942B068E010F5E1F4FDE
:1007C000CE010596B8010E942B068985823040F043
:1007D0008989823028F0C701B8010E94A30601C0B0
:1007E0008FEF6896E6E00C94EB2EA8E1B0E0EBEF1B
:1007F000F3E00C94CF2E69837A838B839C832D83C3
:100800003E834F83588789E0E82EF12CEC0EFD1EC5
:10081000CE010196B7010E942B068E010F5E1F4F7D
:10082000CE010596B8010E942B068985823040F0E2
:100830008989823028F0C701B8010E94A30601C04F
:100840008FEF6896E6E00C94EB2EA8E1B0E0EBE2C7
:10085000F4E00C94CF2E69837A838B839C832D8361
:100860003E834F83588789E0E82EF12CEC0EFD1E65
:10087000CE010196B7010E942B068E010F5E1F4F1D
:10088000CE010596B8010E942B068985823040F082
:100890008989823028F0C701B8010E94A30601C0EF
:1008A00081E06896E6E00C94EB2EA8E0B0E0EBE582
:1008B000F4E00C94CC2E9B01AC0183E08983DA0137
:1008C000C9018827B7FD83959927AA27BB27B82E8A
:1008D000211531054105510519F482E089833AC09B
:1008E0008823A9F0203080E0380780E0480780E8BE
:1008F000580729F460E070E080E09FEC30C0EE24FF
:10090000FF248701E21AF30A040B150B02C07901D8
:100910008A018EE1C82ED12CDC82CB82ED82FE8250
:100920000F831887C801B7010E94070501971816A1
:10093000190684F4082E04C0EE0CFF1C001F111FC2
:100940000A94D2F7ED82FE820F831887C81AD90A5B
:10095000DC82CB82BA82CE0101960E94560528968F
:10096000E9E00C94E82EACE0B0E0E9EBF4E00C94A4
:10097000D32E69837A838B839C83CE010196BE013B
:100980006B5F7F4F0E942B068D81823061F1823038
:1009900050F1843021F48E81882351F12EC02F81B3
:1009A000388537FD20C06E812F3131051CF066235C
:1009B000F9F023C08EE190E0821B930B29853A85E4
:1009C0004B855C8504C056954795379527958A9544
:1009D000D2F76623B1F050954095309521953F4F61
:1009E0004F4F5F4F0EC020E030E040E050E009C0C4
:1009F0002FEF3FEF4FEF5FE704C020E030E040E033
:100A000050E8B901CA012C96E2E00C94EF2EEF9267
:100A1000FF920F931F937B018C0180E0E81680E02A
:100A2000F80681E0080780E0180788F48FEFE816E1
:100A3000F1040105110531F028F088E090E0A0E014
:100A4000B0E017C080E090E0A0E0B0E012C080E02D
:100A5000E81680E0F80680E0080781E0180728F033
:100A600088E190E0A0E0B0E004C080E190E0A0E088
:100A7000B0E020E230E040E050E0281B390B4A0BA8
:100A80005B0B04C016950795F794E7948A95D2F707
:100A9000F701EC50FE4F8081281B310941095109B3
:100AA000C9011F910F91FF90EF900895DF92EF928F
:100AB000FF920F931F93FC01E480F580068117815C
:100AC000D1808081823048F480E090E0A0E1B0E005
:100AD000E82AF92A0A2B1B2BA5C0843009F49FC0F1
:100AE000823021F4EE24FF24870105C0E114F104D3
:100AF0000105110519F4E0E0F0E096C06281738110
:100B00009FEF623879070CF05BC022E83FEF261BAD
:100B1000370B2A3131052CF020E030E040E050E086
:100B20002AC0B801A701022E04C076956795579593
:100B300047950A94D2F781E090E0A0E0B0E004C0CD
:100B4000880F991FAA1FBB1F2A95D2F70197A109E9
:100B5000B1098E219F21A023B1230097A105B105E2
:100B600021F081E090E0A0E0B0E09A01AB01282BF9
:100B7000392B4A2B5B2BDA01C9018F779070A0705B
:100B8000B07080349105A105B10539F427FF09C083
:100B9000205C3F4F4F4F5F4F04C0215C3F4F4F4F92
:100BA0005F4FE0E0F0E02030A0E03A07A0E04A0725
:100BB000A0E45A0710F0E1E0F0E079018A0127C0D3
:100BC0006038710564F5FB01E158FF4FD801C7019A
:100BD0008F779070A070B07080349105A105B10539
:100BE00039F4E7FE0DC080E490E0A0E0B0E004C07E
:100BF0008FE390E0A0E0B0E0E80EF91E0A1F1B1F93
:100C000017FF05C016950795F794E794319687E08E
:100C100016950795F794E7948A95D1F705C0EE24C9
:100C2000FF248701EFEFF0E06E2F67956627679549
:100C3000902F9F77D794DD24D7948E2F8695492FB8
:100C4000462B582F5D29B701CA011F910F91FF90C4
:100C5000EF90DF900895FC01DB01408151812281FA
:100C6000622F6F7770E0221F2227221F9381892F26
:100C7000880F822B282F30E0991F9927991F1196F2
:100C80009C93119721153105A9F541155105610571
:100C9000710511F482E037C082E89FEF13969C93B0
:100CA0008E9312979A01AB0167E0220F331F441F06
:100CB000551F6A95D1F783E08C930DC0220F331F27
:100CC000441F551F12968D919C911397019713966F
:100CD0009C938E931297203080E0380780E048077D
:100CE00080E4580758F314962D933D934D935C93ED
:100CF000179708952F3F310579F441155105610586
:100D0000710519F484E08C93089564FF03C081E0B9
:100D10008C9312C01C9210C02F57304013963C93F6
:100D20002E93129783E08C9387E0440F551F661F24
:100D3000771F8A95D1F7706414964D935D936D93E8
:100D40007C93179708951F93DC01FB019C919230CF
:100D500008F447C08081823008F443C0943051F4D5
:100D600011961C91843099F58181682F70E0611B88
:100D700071093FC0843021F0923031F48230B9F1F2
:100D80008181882389F12DC011961C9111978230A1
:100D9000F1F081811817D9F412962D913C91139797
:100DA000828193818217930794F028173907BCF04A
:100DB00014968D919D910D90BC91A02D248135812B
:100DC00046815781281739074A075B0718F4112312
:100DD00041F00AC082179307A407B50740F4112316
:100DE00019F061E070E005C06FEF7FEF02C060E0D6
:100DF00070E0CB011F910895DF93CF93CDB7DEB79D
:100E000027970FB6F894DEBF0FBECDBF89836A83E4
:100E10004B838981843008F0EEC08A81883008F0E5
:100E2000EAC08B81813009F06FC08981282F30E0C2
:100E30003F832E838E819F818130910549F12E81E0
:100E40003F81223031052CF48E819F81009761F023
:100E5000D2C02E813F812230310571F18E819F8178
:100E600083309105E9F1C7C0AAE3B0E0EAE3F0E01E
:100E70008081482F8A81282F30E081E090E0022E87
:100E800002C0880F991F0A94E2F7842B8C93B3C099
:100E9000A7E3B0E0E7E3F0E08081482F8A81282FC4
:100EA00030E081E090E0022E02C0880F991F0A9482
:100EB000E2F7842B8C939FC0A4E3B0E0E4E3F0E07E
:100EC0008081482F8A81282F30E081E090E0022E37
:100ED00002C0880F991F0A94E2F7842B8C938BC071
:100EE000A1E3B0E0E1E3F0E08081482F8A81282F80
:100EF00030E081E090E0022E02C0880F991F0A9432
:100F0000E2F7842B8C9377C08B81882309F073C020
:100F10008981282F30E03D832C838C819D81813015
:100F2000910559F12C813D81223031052CF48C81C1
:100F30009D81009769F05FC02C813D812230310591
:100F400089F18C819D818330910509F440C053C0A3
:100F5000AAE3B0E0EAE3F0E08081482F8A81282FFD
:100F600030E081E090E0022E02C0880F991F0A94C1
:100F7000E2F7809584238C933EC0A7E3B0E0E7E3DB
:100F8000F0E08081482F8A81282F30E081E090E0D6
:100F9000022E02C0880F991F0A94E2F780958423DD
:100FA0008C9329C0A4E3B0E0E4E3F0E08081482F13
:100FB0008A81282F30E081E090E0022E02C0880F65
:100FC000991F0A94E2F7809584238C9314C0A1E3BF
:100FD000B0E0E1E3F0E08081482F8A81282F30E003
:100FE00081E090E0022E02C0880F991F0A94E2F778
:100FF000809584238C9327960FB6F894DEBF0FBE9E
:10100000CDBFCF91DF910895DF93CF9300D000D073
:10101000CDB7DEB789836A838981843090F5898171
:10102000282F30E03C832B838B819C81813091057C
:10103000D1F02B813C81223031052CF48B819C81B5
:10104000009761F01EC02B813C812230310581F078
:101050008B819C818330910581F013C0EAE3F0E03D
:101060008A8180830EC0E7E3F0E08A81808309C033
:10107000E4E3F0E08A81808304C0E1E3F0E08A8168
:1010800080830F900F900F900F90CF91DF91089574
:10109000DF93CF93CDB7DEB727970FB6F894DEBFB7
:1010A0000FBECDBF89836A834B838981843008F06A
:1010B000EEC08A81883008F0EAC08B81813009F067
:1010C0006FC08981282F30E03F832E838E819F81DE
:1010D0008130910549F12E813F81223031052CF478
:1010E0008E819F81009761F0D2C02E813F81223096
:1010F000310571F18E819F8183309105E9F1C7C07F
:10110000ABE3B0E0EBE3F0E08081482F8A81282F49
:1011100030E081E090E0022E02C0880F991F0A940F
:10112000E2F7842B8C93B3C0A8E3B0E0E8E3F0E0EF
:101130008081482F8A81282F30E081E090E0022EC4
:1011400002C0880F991F0A94E2F7842B8C939FC0EA
:10115000A5E3B0E0E5E3F0E08081482F8A81282F05
:1011600030E081E090E0022E02C0880F991F0A94BF
:10117000E2F7842B8C938BC0A2E3B0E0E2E3F0E0D3
:101180008081482F8A81282F30E081E090E0022E74
:1011900002C0880F991F0A94E2F7842B8C9377C0C2
:1011A0008B81882309F073C08981282F30E03D832B
:1011B0002C838C819D818130910559F12C813D8159
:1011C000223031052CF48C819D81009769F05FC03D
:1011D0002C813D812230310589F18C819D818330C4
:1011E000910509F440C053C0ABE3B0E0EBE3F0E09D
:1011F0008081482F8A81282F30E081E090E0022E04
:1012000002C0880F991F0A94E2F7809584238C937B
:101210003EC0A8E3B0E0E8E3F0E08081482F8A8197
:10122000282F30E081E090E0022E02C0880F991F45
:101230000A94E2F7809584238C9329C0A5E3B0E05B
:10124000E5E3F0E08081482F8A81282F30E081E0BB
:1012500090E0022E02C0880F991F0A94E2F7809551
:1012600084238C9314C0A2E3B0E0E2E3F0E0808139
:10127000482F8A81282F30E081E090E0022E02C0C2
:10128000880F991F0A94E2F7809584238C93279600
:101290000FB6F894DEBF0FBECDBFCF91DF9108959A
:1012A000DF93CF9300D000D0CDB7DEB789836A83B8
:1012B0008981843090F58981282F30E03C832B830D
:1012C0008B819C8181309105D1F02B813C81223032
:1012D00031052CF48B819C81009761F01EC02B811D
:1012E0003C812230310581F08B819C8183309105D6
:1012F00081F013C0EBE3F0E08A8180830EC0E8E365
:10130000F0E08A81808309C0E5E3F0E08A81808390
:1013100004C0E2E3F0E08A8180830F900F900F9089
:101320000F90CF91DF910895DF93CF9300D000D03D
:1013300000D0CDB7DEB78A836B838A81843008F012
:101340006EC08B81883008F06AC08A81282F30E017
:101350003E832D834D815E814130510541F18D8168
:101360009E818230910534F42D813E812115310515
:1013700061F052C04D815E814230510551F18D8145
:101380009E8183309105B9F147C0E9E3F0E08081A7
:10139000282F30E08B81882F90E0A90102C055955D
:1013A00047958A95E2F7CA018170898335C0E6E3E3
:1013B000F0E08081282F30E08B81882F90E0A90118
:1013C00002C0559547958A95E2F7CA0181708983D5
:1013D00023C0E3E3F0E08081282F30E08B81882F69
:1013E00090E0A90102C0559547958A95E2F7CA0198
:1013F0008170898311C0E0E3F0E08081282F30E024
:101400008B81882F90E0A90102C0559547958A9558
:10141000E2F7CA018170898359815C8302C08FEF32
:101420008C838C8126960FB6F894DEBF0FBECDBF9D
:10143000CF91DF910895DF93CF9300D000D0CDB747
:10144000DEB789836A838981843008F072C08A811B
:10145000883008F06EC08981282F30E03C832B83D0
:101460008B819C818130910549F12B813C81223017
:1014700031052CF48B819C81009761F05AC02B813F
:101480003C812230310571F18B819C818330910543
:10149000E9F14FC0ABE3B0E0EBE3F0E08081482F2F
:1014A0008A81282F30E081E090E0022E02C0880F70
:1014B000991F0A94E2F784278C933BC0A8E3B0E01D
:1014C000E8E3F0E08081482F8A81282F30E081E036
:1014D00090E0022E02C0880F991F0A94E2F7842739
:1014E0008C9327C0A5E3B0E0E5E3F0E08081482FCE
:1014F0008A81282F30E081E090E0022E02C0880F20
:10150000991F0A94E2F784278C9313C0A2E3B0E0FA
:10151000E2E3F0E08081482F8A81282F30E081E0EB
:1015200090E0022E02C0880F991F0A94E2F78427E8
:101530008C930F900F900F900F90CF91DF910895A3
:10154000DF93CF9300D00F92CDB7DEB78983898127
:10155000843008F03EC08981282F30E03B832A8305
:101560008A819B8181309105E9F02A813B8122307B
:1015700031052CF48A819B81009761F02AC02A8171
:101580003B8122303105B1F08A819B818330910506
:10159000C9F01FC0ABE3B0E0EBE3F0E080818095E1
:1015A0008C9317C0A8E3B0E0E8E3F0E08081809579
:1015B0008C930FC0A5E3B0E0E5E3F0E08081809577
:1015C0008C9307C0A2E3B0E0E2E3F0E08081809575
:1015D0008C930F900F900F90CF91DF9108950F9300
:1015E0001F93DF93CF93CDB7DEB7C654D0400FB66D
:1015F000F894DEBF0FBECDBF0E94750DFE01ED5BFE
:10160000FF4F80E090E0A8ECB2E480839183A28356
:10161000B3838E01015C1F4FFE01ED5BFF4F6081C4
:1016200071818281938120E030E04AE755E40E9495
:101630001F02DC01CB01F80180839183A283B38375
:10164000FE01FF96608171818281938120E030E00C
:1016500040E85FE30E94250488232CF481E090E0B9
:101660009EAF8DAF46C0FE01FF9660817181828181
:10167000938120E03FEF4FE757E40E94C50318161F
:1016800064F5FE01ED5BFF4F608171818281938182
:1016900020E030E040E251E40E941F02DC01CB0177
:1016A000BC01CD010E944900DC01CB019EAF8DAF92
:1016B0000FC080E991E09CAF8BAF8BAD9CAD0197E3
:1016C000F1F79CAF8BAF8DAD9EAD01979EAF8DAF07
:1016D0008DAD9EAD009769F716C0FE01FF96608143
:1016E0007181828193810E944900DC01CB019EAF10
:1016F0008DAF8DAD9EAD9AAF89AF89AD9AAD019793
:10170000F1F79AAF89AF80E20E94290E80E20E9431
:10171000290E80E80E94290E80E090E0A0E8BFE357
:101720008DAB9EABAFABB8AF6DA97EA98FA998ADBD
:1017300020E030E04AE755E40E941F02DC01CB01C3
:1017400089AB9AABABABBCAB69A97AA98BA99CA9B5
:1017500020E030E040E85FE30E94250488232CF479
:1017600081E090E098AB8FA73FC069A97AA98BA9C7
:101770009CA920E03FEF4FE757E40E94C5031816ED
:101780004CF56DA97EA98FA998AD20E030E040E22C
:1017900051E40E941F02DC01CB01BC01CD010E947B
:1017A0004900DC01CB0198AB8FA70FC080E991E025
:1017B0009EA78DA78DA59EA50197F1F79EA78DA742
:1017C0008FA598A9019798AB8FA78FA598A9009787
:1017D00069F714C069A97AA98BA99CA90E9449003C
:1017E000DC01CB0198AB8FA78FA598A99CA78BA7ED
:1017F0008BA59CA50197F1F79CA78BA780E00E9481
:10180000290E80EC0E94290E80E090E0A0E8BFE362
:101810008FA398A7A9A7BAA76FA178A589A59AA50C
:1018200020E030E04AE755E40E941F02DC01CB01D2
:101830008BA39CA3ADA3BEA36BA17CA18DA19EA1F4
:1018400020E030E040E85FE30E94250488232CF488
:1018500081E090E09AA389A33FC06BA17CA18DA1F8
:101860009EA120E03FEF4FE757E40E94C503181602
:101870004CF56FA178A589A59AA520E030E040E25B
:1018800051E40E941F02DC01CB01BC01CD010E948A
:101890004900DC01CB019AA389A30FC080E991E044
:1018A00098A38F8F8F8D98A10197F1F798A38F8FB1
:1018B00089A19AA101979AA389A389A19AA10097C6
:1018C00069F714C06BA17CA18DA19EA10E94490063
:1018D000DC01CB019AA389A389A19AA19E8F8D8F48
:1018E0008D8D9E8D0197F1F79E8F8D8F80E00E94E8
:1018F000290E80E10E94290E80E090E0A0E0B0E493
:10190000898F9A8FAB8FBC8F698D7A8D8B8D9C8DD3
:1019100020E030E04AE755E40E941F02DC01CB01E1
:101920008D8B9E8BAF8BB88F6D897E898F89988DBB
:1019300020E030E040E85FE30E94250488232CF497
:1019400081E090E09C8B8B8B3FC06D897E898F8975
:10195000988D20E03FEF4FE757E40E94C50318162B
:101960004CF5698D7A8D8B8D9C8D20E030E040E2C6
:1019700051E40E941F02DC01CB01BC01CD010E9499
:101980004900DC01CB019C8B8B8B0FC080E991E07F
:101990009A8B898B89899A890197F1F79A8B898B20
:1019A0008B899C8901979C8B8B8B8B899C89009759
:1019B00069F714C06D897E898F89988D0E944900CE
:1019C000DC01CB019C8B8B8B8B899C89988B8F87BF
:1019D0008F8598890197F1F7988B8F8780E00E9417
:1019E000290E80E60E94290E81E08093740380E036
:1019F00090E0A0E0B0E48B879C87AD87BE876B85C5
:101A00007C858D859E8520E030E04AE755E40E9484
:101A10001F02DC01CB018F839887A987BA876F816A
:101A2000788589859A8520E030E040E85FE30E9470
:101A3000250488232CF481E090E09E838D833FC0B1
:101A40006F81788589859A8520E03FEF4FE757E4DD
:101A50000E94C50318164CF56B857C858D859E8587
:101A600020E030E040E251E40E941F02DC01CB01A3
:101A7000BC01CD010E944900DC01CB019E838D8316
:101A80000FC080E991E09C838B838B819C810197BF
:101A9000F1F79C838B838D819E8101979E838D833B
:101AA0008D819E81009769F714C06F817885898543
:101AB0009A850E944900DC01CB019E838D838D8134
:101AC0009E819A83898389819A810197F1F79A830C
:101AD0008983CA5BDF4F0FB6F894DEBF0FBECDBF60
:101AE000CF91DF911F910F910895DF93CF93CDB7E1
:101AF000DEB781E060E041E00E94FC0681E061E049
:101B000041E00E94FC0681E062E041E00E94FC06A8
:101B100081E064E041E00E94FC0680E062E041E098
:101B20000E94FC0680E063E041E00E94FC06CF9149
:101B3000DF910895DF93CF93CDB7DEB72E970FB621
:101B4000F894DEBF0FBECDBF80E062E041E00E94AE
:101B5000480880E090E0A0E0B0E48B879C87AD87E8
:101B6000BE876B857C858D859E8520E030E04AE7C9
:101B700055E40E941F02DC01CB018F839887A9875F
:101B8000BA876F81788589859A8520E030E040E8C2
:101B90005FE30E94250488232CF481E090E09E837B
:101BA0008D833FC06F81788589859A8520E03FEFDE
:101BB0004FE757E40E94C50318164CF56B857C85EA
:101BC0008D859E8520E030E040E251E40E941F02B6
:101BD000DC01CB01BC01CD010E944900DC01CB013D
:101BE0009E838D830FC080E991E09C838B838B81E2
:101BF0009C810197F1F79C838B838D819E81019756
:101C00009E838D838D819E81009769F714C06F81BB
:101C1000788589859A850E944900DC01CB019E83E5
:101C20008D838D819E819A83898389819A81019791
:101C3000F1F79A83898380E062E040E00E944808DF
:101C40002E960FB6F894DEBF0FBECDBFCF91DF91B9
:101C50000895DF93CF930F92CDB7DEB7898380E0ED
:101C600063E040E00E944808898182958F70982F38
:101C7000917081E060E0492F0E9448088981829537
:101C800086958770982F917081E061E0492F0E94BE
:101C9000480889818295869586958370982F9170E2
:101CA00081E062E0492F0E9448088981982F991F9E
:101CB0009927991F81E064E0492F0E9448080E94FB
:101CC0009A0D80917403882341F18981982F917036
:101CD00081E060E0492F0E94480889818695982F0D
:101CE000917081E061E0492F0E94480889818695C2
:101CF0008695982F917081E062E0492F0E944808F4
:101D00008981869586958695982F917081E064E00B
:101D1000492F0E9448080E949A0D0F90CF91DF91A1
:101D20000895DF93CF930F92CDB7DEB7898380E01C
:101D300063E041E00E944808898182958F70982F66
:101D4000917081E060E0492F0E9448088981829566
:101D500086958770982F917081E061E0492F0E94ED
:101D6000480889818295869586958370982F917011
:101D700081E062E0492F0E9448088981982F991FCD
:101D80009927991F81E064E0492F0E9448080E942A
:101D90009A0D8981982F917081E060E0492F0E940F
:101DA000480889818695982F917081E061E0492FDC
:101DB0000E944808898186958695982F917081E0C8
:101DC00062E0492F0E94480889818695869586950C
:101DD000982F917081E064E0492F0E9448080E948A
:101DE0009A0D0F90CF91DF910895DF93CF93CDB7E8
:101DF000DEB781E00E94290ECF91DF910895DF9335
:101E0000CF9300D00F92CDB7DEB78A836B838B81DF
:101E1000898308C080E06A8149810E94280F8981F6
:101E20008F5F898389818431A8F30F900F900F9081
:101E3000CF91DF910895DF93CF930F92CDB7DEB7A7
:101E4000898389810E94910E0F90CF91DF9108952F
:101E5000DF93CF9300D00F92CDB7DEB789836A832B
:101E60004B838A816B810E94800F89810E941B0FA6
:101E70000F900F900F90CF91DF910895DF93CF9344
:101E800000D00F92CDB7DEB79B838A8319820EC034
:101E90008981282F30E08A819B81FC01E20FF31FAA
:101EA00080810E94910E89818F5F89838981282F8B
:101EB00030E08A819B81FC01E20FF31F808188233F
:101EC00039F70F900F900F90CF91DF910895DF9326
:101ED000CF9300D000D0CDB7DEB79A8389836B83D0
:101EE0004C838B816C810E94800F89819A810E9432
:101EF0003E0F0F900F900F900F90CF91DF910895AC
:101F0000DF93CF93CDB7DEB76B970FB6F894DEBFF4
:101F10000FBECDBF8A8F6B8F198E8A8D882321F4D7
:101F20008B8D8058898F14C08A8D813021F48B8DE0
:101F30008054898F0DC08A8D823021F48B8D8C5610
:101F4000898F06C08A8D833019F48B8D8C52898FCE
:101F5000898D8068898F898D0E94290E80E090E0AC
:101F6000A0E2B2E48D8B9E8BAF8BB88F6D897E899A
:101F70008F89988D2BEA3AEA4AEA50E40E941F02C0
:101F8000DC01CB01898B9A8BAB8BBC8B69897A89FD
:101F90008B899C8920E030E040E85FE30E942504C3
:101FA00088231CF481E0888B91C069897A898B89A8
:101FB0009C8920E030E04FE753E40E94C5031816E7
:101FC0000CF07BC06D897E898F89988D20E030E090
:101FD0004AE754E40E941903DC01CB018C879D87FA
:101FE000AE87BF876C857D858E859F8520E030E03C
:101FF0004AE755E40E941F02DC01CB0188879987DC
:10200000AA87BB87688579858A859B8520E030E033
:1020100040E85FE30E94250488232CF481E090E0EF
:102020009F838E833FC0688579858A859B8520E064
:102030003FEF4FE757E40E94C50318164CF56C8537
:102040007D858E859F8520E030E040E251E40E944E
:102050001F02DC01CB01BC01CD010E944900DC0163
:10206000CB019F838E830FC080E991E09D838C8399
:102070008C819D810197F1F79D838C838E819F8157
:1020800001979F838E838E819F81009769F724C07B
:10209000688579858A859B850E944900DC01CB0192
:1020A0009F838E838E819F819B838A838A819B817C
:1020B0000197F1F79B838A830FC069897A898B899D
:1020C0009C890E944900DC01CB01888B8889898327
:1020D00089818A95F1F789836B960FB6F894DEBFF4
:1020E0000FBECDBFCF91DF9108950F931F93DF9364
:1020F000CF93CDB7DEB760970FB6F894DEBF0FBEB3
:10210000CDBF6D877E878F87988B8D859E85AF85A8
:10211000B889BB2394F48DE20E94910E8D859E8533
:10212000AF85B889B095A095909581959F4FAF4F99
:10213000BF4F8D879E87AF87B88B8AE0FE013396AD
:10214000DF01982F1D929A95E9F71A822DC08A8196
:10215000082F10E08D859E85AF85B8892AE030E094
:1021600040E050E0BC01CD010E94862EDC01CB0195
:10217000282FCE010396FC01E00FF11F20838D85EF
:102180009E85AF85B8892AE030E040E050E0BC0190
:10219000CD010E94862EDA01C9018D879E87AF8707
:1021A000B88B8A818F5F8A838D859E85AF85B8893C
:1021B000181619061A061B0654F28A81882311F490
:1021C00081E08A838A81898312C08981882F90E087
:1021D0009C0121503040CE010396FC01E20FF31F19
:1021E0008081805D0E94910E8981815089838981DF
:1021F000882359F760960FB6F894DEBF0FBECDBFA7
:10220000CF91DF911F910F910895DF93CF93CDB7B9
:10221000DEB72D970FB6F894DEBF0FBECDBF6A872D
:102220007B878C879D876A857B858C859D850E94B1
:10223000B304DC01CB018E839F83A887B9876E81AD
:102240007F81888599850E9455049B01AC016A8530
:102250007B858C859D850E94C101DC01CB018A8331
:102260009B83AC83BD838E819F81A885B985BC018A
:10227000CD010E9475108EE20E941B0F6A817B8146
:102280008C819D8120E030E048EC52E40E941F02E6
:10229000DC01CB01BC01CD010E944900DC01CB0176
:1022A00089838981882F90E0A0E0B0E0BC01CD0156
:1022B0000E9475102D960FB6F894DEBF0FBECDBFED
:1022C000CF91DF910895DF93CF93CDB7DEB72797F6
:1022D0000FB6F894DEBF0FBECDBF8B837D836C83BA
:1022E0004E832F838C819D81009759F18B81882F9C
:1022F00090E0880F991F880F991F880F991F8A8374
:1023000019828A8180648A838A810E94290E1982B7
:102310000EC08981282F30E08C819D81FC01E20F65
:10232000F31F80810E94910E89818F5F898389814B
:10233000883078F38E816F810E94800F8B810E949C
:10234000910E27960FB6F894DEBF0FBECDBFCF918A
:10235000DF9108950F931F93DF93CF93CDB7DEB72F
:10236000C650D2400FB6F894DEBF0FBECDBF0E945C
:10237000EF0A80E690E060E040E00E94670F8AE6A6
:1023800090E061E040E00E94670F8CE790E062E03F
:1023900040E00E94670F24E433E080E0B90143E0AD
:1023A00027E00E94631124E433E080E0B90143E0B8
:1023B00029E00E94631124E433E080E0B90143E0A6
:1023C0002BE00E946311FE01ED5FFD4F80E090E87D
:1023D000ABEBB4E480839183A283B3838E0101507D
:1023E0001E4FFE01ED5FFD4F6081718182819381FF
:1023F00020E030E04AE755E40E941F02DC01CB01F7
:10240000F80180839183A283B383FE01E150FE4FE4
:10241000608171818281938120E030E040E85FE358
:102420000E942504882344F4FE01E350FE4F81E01E
:1024300090E09183808364C0FE01E150FE4F608193
:1024400071818281938120E03FEF4FE757E40E9442
:10245000C50318160CF043C0FE01ED5FFD4F60810F
:1024600071818281938120E030E040E251E40E945A
:102470001F02DC01CB018E0103501E4FBC01CD01B8
:102480000E944900DC01CB01F801918380831FC0C9
:10249000FE01E550FE4F80E991E091838083FE01CB
:1024A000E550FE4F808191810197F1F7FE01E550E3
:1024B000FE4F91838083DE01A350BE4FFE01E350A7
:1024C000FE4F80819181019711969C938E93FE011E
:1024D000E350FE4F808191810097D1F627C08E0195
:1024E00003501E4FFE01E150FE4F608171818281D9
:1024F00093810E944900DC01CB01F8019183808324
:10250000DE01A750BE4FFE01E350FE4F8081918156
:102510008D939C93FE01E750FE4F8081918101973E
:10252000F1F7FE01E750FE4F918380830E94F50E84
:102530008DE890E060E040E00E94670F8DE990E058
:1025400061E040E00E94670F82EB90E062E040E0D3
:102550000E94670F24EF32E080E0B90142E020E101
:102560000E9463118EEB90E063E040E00E94670FF1
:102570002CE433E081E0B90143E020E10E946311E3
:10258000FE01EB50FE4F80E090E8ABEBB4E48083BB
:102590009183A283B3838E010F501E4FFE01EB5037
:1025A000FE4F608171818281938120E030E04AE7B3
:1025B00055E40E941F02DC01CB01F8018083918366
:1025C000A283B383FE01EF50FE4F6081718182814F
:1025D000938120E030E040E85FE30E9425048823F7
:1025E00044F4FE01E151FE4F81E090E0918380834D
:1025F00064C0FE01EF50FE4F608171818281938142
:1026000020E03FEF4FE757E40E94C50318160CF097
:1026100043C0FE01EB50FE4F608171818281938146
:1026200020E030E040E251E40E941F02DC01CB01D7
:102630008E0101511E4FBC01CD010E944900DC01F9
:10264000CB01F801918380831FC0FE01E351FE4F4F
:1026500080E991E091838083FE01E351FE4F808108
:1026600091810197F1F7FE01E351FE4F9183808341
:10267000DE01A151BE4FFE01E151FE4F80819181EB
:10268000019711969C938E93FE01E151FE4F80813C
:1026900091810097D1F627C08E0101511E4FFE0196
:1026A000EF50FE4F60817181828193810E944900C9
:1026B000DC01CB01F80191838083DE01A551BE4F7F
:1026C000FE01E151FE4F808191818D939C93FE012B
:1026D000E551FE4F808191810197F1F7FE01E551AF
:1026E000FE4F918380830E94F50E8AEC90E060E0BB
:1026F00040E00E94670F8BED90E061E040E00E94B7
:10270000670F8FEE90E062E040E00E94670F82E08A
:1027100091E063E040E00E94670FFE01E951FE4F47
:1027200080E090E0AAEFB4E480839183A283B38336
:102730008E010D511E4FFE01E951FE4F60817181E6
:102740008281938120E030E04AE755E40E941F0235
:10275000DC01CB01F80180839183A283B383FE0166
:10276000ED51FE4F608171818281938120E030E0E4
:1027700040E85FE30E942504882344F4FE01EF5102
:10278000FE4F81E090E09183808364C0FE01ED51B3
:10279000FE4F608171818281938120E03FEF4FE79E
:1027A00057E40E94C50318160CF043C0FE01E9511E
:1027B000FE4F608171818281938120E030E040E2B0
:1027C00051E40E941F02DC01CB018E010F511E4F0C
:1027D000BC01CD010E944900DC01CB01F8019183CD
:1027E00080831FC0FE01E152FE4F80E991E091839A
:1027F0008083FE01E152FE4F808191810197F1F7C4
:10280000FE01E152FE4F91838083DE01AF51BE4F46
:10281000FE01EF51FE4F80819181019711969C93AB
:102820008E93FE01EF51FE4F808191810097D1F68A
:1028300027C08E010F511E4FFE01ED51FE4F6081EA
:102840007181828193810E944900DC01CB01F801F2
:1028500091838083DE01A352BE4FFE01EF51FE4FF4
:10286000808191818D939C93FE01E352FE4F808184
:1028700091810197F1F7FE01E352FE4F918380832E
:102880000E94F50E87E191E060E040E00E94670F52
:1028900024EF32E080E0B90141E020E00E946311C2
:1028A0008BE291E062E049E00E94670F2CE433E0A4
:1028B00081E0B90143E020E00E946311FE01E7528C
:1028C000FE4F80E090E0A8ECB2E480839183A28385
:1028D000B3838E010B521E4FFE01E752FE4F608103
:1028E00071818281938120E030E04AE755E40E94C3
:1028F0001F02DC01CB01F80180839183A283B383A3
:10290000FE01EB52FE4F608171818281938120E054
:1029100030E040E85FE30E942504882344F4FE0190
:10292000ED52FE4F81E090E09183808364C0FE0110
:10293000EB52FE4F608171818281938120E03FEFF5
:102940004FE757E40E94C50318160CF043C0FE0180
:10295000E752FE4F608171818281938120E030E0F7
:1029600040E251E40E941F02DC01CB018E010D52B6
:102970001E4FBC01CD010E944900DC01CB01F801D2
:10298000918380831FC0FE01EF52FE4F80E991E0EA
:1029900091838083FE01EF52FE4F808191810197E8
:1029A000F1F7FE01EF52FE4F91838083DE01AD52BD
:1029B000BE4FFE01ED52FE4F80819181019711962D
:1029C0009C938E93FE01ED52FE4F80819181009782
:1029D000D1F627C08E010D521E4FFE01EB52FE4F65
:1029E00060817181828193810E944900DC01CB0169
:1029F000F80191838083DE01A153BE4FFE01ED52A9
:102A0000FE4F808191818D939C93FE01E153FE4F97
:102A1000808191810197F1F7FE01E153FE4F91838F
:102A2000808380E261E040E00E94280F80E263E062
:102A300040E00E94280F24EF32E080E0B90141E03D
:102A400021E00E9463112CE433E081E0B90143E00E
:102A500021E00E946311FE01E553FE4F80E090E00B
:102A6000A8ECB2E480839183A283B3838E010953DF
:102A70001E4FFE01E553FE4F60817181828193817B
:102A800020E030E04AE755E40E941F02DC01CB0160
:102A9000F80180839183A283B383FE01E953FE4F43
:102AA000608171818281938120E030E040E85FE3C2
:102AB0000E942504882344F4FE01EB53FE4F81E07D
:102AC00090E09183808364C0FE01E953FE4F6081F2
:102AD00071818281938120E03FEF4FE757E40E94AC
:102AE000C50318160CF043C0FE01E553FE4F60818C
:102AF00071818281938120E030E040E251E40E94C4
:102B00001F02DC01CB018E010B531E4FBC01CD0116
:102B10000E944900DC01CB01F801918380831FC032
:102B2000FE01ED53FE4F80E991E091838083FE0129
:102B3000ED53FE4F808191810197F1F7FE01ED5336
:102B4000FE4F91838083DE01AB53BE4FFE01EB53FA
:102B5000FE4F80819181019711969C938E93FE0187
:102B6000EB53FE4F808191810097D1F627C08E01F3
:102B70000B531E4FFE01E953FE4F6081718182812C
:102B800093810E944900DC01CB01F801918380838D
:102B9000DE01AF53BE4FFE01EB53FE4F80819181AA
:102BA0008D939C93FE01EF53FE4F8081918101979D
:102BB000F1F7FE01EF53FE4F9183808380E261E0E5
:102BC00041E00E94280F80E263E041E00E94280F6C
:102BD00024EF32E080E0B90141E022E00E9463117D
:102BE0002CE433E081E0B90143E022E00E9463116C
:102BF000FE01E354FE4F80E090E0A8ECB2E4808355
:102C00009183A283B3838E0107541E4FFE01E354C8
:102C1000FE4F608171818281938120E030E04AE73C
:102C200055E40E941F02DC01CB01F80180839183EF
:102C3000A283B383FE01E754FE4F608171818281DC
:102C4000938120E030E040E85FE30E942504882380
:102C500044F4FE01E954FE4F81E090E091838083CB
:102C600064C0FE01E754FE4F6081718182819381CF
:102C700020E03FEF4FE757E40E94C50318160CF021
:102C800043C0FE01E354FE4F6081718182819381D4
:102C900020E030E040E251E40E941F02DC01CB0161
:102CA0008E0109541E4FBC01CD010E944900DC0178
:102CB000CB01F801918380831FC0FE01EB54FE4FCE
:102CC00080E991E091838083FE01EB54FE4F808187
:102CD00091810197F1F7FE01EB54FE4F91838083C0
:102CE000DE01A954BE4FFE01E954FE4F808191815F
:102CF000019711969C938E93FE01E954FE4F8081BB
:102D000091810097D1F627C08E0109541E4FFE0114
:102D1000E754FE4F60817181828193810E94490056
:102D2000DC01CB01F80191838083DE01AD54BE4FFD
:102D3000FE01E954FE4F808191818D939C93FE01A9
:102D4000ED54FE4F808191810197F1F7FE01ED5422
:102D5000FE4F9183808380E261E042E00E94280F71
:102D600080E263E042E00E94280F24EF32E080E03E
:102D7000B90141E023E00E9463112CE433E081E0DB
:102D8000B90143E023E00E946311FE01E155FE4FCB
:102D900080E090E0A8ECB2E480839183A283B383C7
:102DA0008E0105551E4FFE01E155FE4F6081718178
:102DB0008281938120E030E04AE755E40E941F02BF
:102DC000DC01CB01F80180839183A283B383FE01F0
:102DD000E555FE4F608171818281938120E030E072
:102DE00040E85FE30E942504882344F4FE01E75590
:102DF000FE4F81E090E09183808364C0FE01E55541
:102E0000FE4F608171818281938120E03FEF4FE727
:102E100057E40E94C50318160CF043C0FE01E155AB
:102E2000FE4F608171818281938120E030E040E239
:102E300051E40E941F02DC01CB018E0107551E4F99
:102E4000BC01CD010E944900DC01CB01F801918356
:102E500080831FC0FE01E955FE4F80E991E0918318
:102E60008083FE01E955FE4F808191810197F1F742
:102E7000FE01E955FE4F91838083DE01A755BE4FC9
:102E8000FE01E755FE4F80819181019711969C9339
:102E90008E93FE01E755FE4F808191810097D1F618
:102EA00027C08E0107551E4FFE01E555FE4F60817C
:102EB0007181828193810E944900DC01CB01F8017C
:102EC00091838083DE01AB55BE4FFE01E755FE4F77
:102ED000808191818D939C93FE01EB55FE4F808103
:102EE00091810197F1F7FE01EB55FE4F91838083AD
:102EF00080E261E043E00E94280F80E263E043E06B
:102F00000E94280F24EF32E080E0B90141E024E084
:102F10000E9463112CE433E081E0B90143E024E036
:102F20000E946311FE01EF55FE4F80E090E0A8EC97
:102F3000B2E480839183A283B3838E0103561E4F34
:102F4000FE01EF55FE4F608171818281938120E007
:102F500030E04AE755E40E941F02DC01CB01F80192
:102F600080839183A283B383FE01E356FE4F608189
:102F700071818281938120E030E040E85FE30E942C
:102F80002504882344F4FE01E556FE4F81E090E0DD
:102F90009183808364C0FE01E356FE4F608171819E
:102FA0008281938120E03FEF4FE757E40E94C50301
:102FB00018160CF043C0FE01EF55FE4F6081718181
:102FC0008281938120E030E040E251E40E941F02C0
:102FD000DC01CB018E0105561E4FBC01CD010E94C4
:102FE0004900DC01CB01F801918380831FC0FE0101
:102FF000E756FE4F80E991E091838083FE01E7561A
:10300000FE4F808191810197F1F7FE01E756FE4F57
:1030100091838083DE01A556BE4FFE01E556FE4F2B
:1030200080819181019711969C938E93FE01E556C4
:10303000FE4F808191810097D1F627C08E01055601
:103040001E4FFE01E356FE4F6081718182819381A4
:103050000E944900DC01CB01F80191838083DE01ED
:10306000A956BE4FFE01E556FE4F808191818D939A
:103070009C93FE01E956FE4F808191810197F1F703
:10308000FE01E956FE4F9183808380E261E044E0D7
:103090000E94280F80E263E044E00E94280F24EFA2
:1030A00032E080E0B90141E025E00E9463112CE4A8
:1030B00033E081E0B90143E025E00E946311FE01A5
:1030C000ED56FE4F80E090E0A8ECB2E4808391835F
:1030D000A283B3838E0101571E4FFE01ED56FE4FB2
:1030E000608171818281938120E030E04AE755E47C
:1030F0000E941F02DC01CB01F80180839183A2832F
:10310000B383FE01E157FE4F60817181828193811B
:1031100020E030E040E85FE30E942504882344F487
:10312000FE01E357FE4F81E090E09183808364C00D
:10313000FE01E157FE4F608171818281938120E021
:103140003FEF4FE757E40E94C50318160CF043C049
:10315000FE01ED56FE4F608171818281938120E0F6
:1031600030E040E251E40E941F02DC01CB018E01FD
:1031700003571E4FBC01CD010E944900DC01CB0169
:10318000F801918380831FC0FE01E557FE4F80E95F
:1031900091E091838083FE01E557FE4F808191810C
:1031A0000197F1F7FE01E557FE4F91838083DE0121
:1031B000A357BE4FFE01E357FE4F808191810197D7
:1031C00011969C938E93FE01E357FE4F808191816F
:1031D0000097D1F627C08E0103571E4FFE01E1571D
:1031E000FE4F60817181828193810E944900DC01E0
:1031F000CB01F80191838083DE01A757BE4FFE010A
:10320000E357FE4F808191818D939C93FE01E75798
:10321000FE4F808191810197F1F7FE01E757FE4F44
:103220009183808380E261E045E00E94280F80E284
:1032300063E045E00E94280F24EF32E080E0B9010E
:1032400041E026E00E9463112CE433E081E0B90103
:1032500043E026E00E946311FE01EB57FE4F80E041
:1032600090E0A8ECB2E480839183A283B3838E01C3
:103270000F571E4FFE01EB57FE4F60817181828117
:10328000938120E030E04AE755E40E941F02DC0110
:10329000CB01F80180839183A283B383FE01EF57B2
:1032A000FE4F608171818281938120E030E040E8AF
:1032B0005FE30E942504882344F4FE01E158FE4F99
:1032C00081E090E09183808364C0FE01EF57FE4F60
:1032D000608171818281938120E03FEF4FE757E465
:1032E0000E94C50318160CF043C0FE01EB57FE4FB9
:1032F000608171818281938120E030E040E251E47D
:103300000E941F02DC01CB018E0101581E4FBC013F
:10331000CD010E944900DC01CB01F801918380833B
:103320001FC0FE01E358FE4F80E991E09183808346
:10333000FE01E358FE4F808191810197F1F7FE0174
:10334000E358FE4F91838083DE01A158BE4FFE01FA
:10335000E158FE4F80819181019711969C938E9345
:10336000FE01E158FE4F808191810097D1F627C080
:103370008E0101581E4FFE01EF57FE4F6081718193
:10338000828193810E944900DC01CB01F801918385
:103390008083DE01A558BE4FFE01E158FE4F8081BB
:1033A00091818D939C93FE01E558FE4F8081918120
:1033B0000197F1F7FE01E558FE4F9183808380E28B
:1033C00061E046E00E94280F80E263E046E00E9450
:1033D000280F24EF32E080E0B90141E027E00E94AD
:1033E00063112CE433E081E0B90143E027E00E945F
:1033F0006311FE01E958FE4F80E090E0A8ECB2E4D2
:1034000080839183A283B3838E010D581E4FFE01EA
:10341000E958FE4F608171818281938120E030E024
:103420004AE755E40E941F02DC01CB01F8018083CA
:103430009183A283B383FE01ED58FE4F60817181B9
:103440008281938120E030E040E85FE30E94250420
:10345000882344F4FE01EF58FE4F81E090E0918311
:10346000808364C0FE01ED58FE4F608171818281CE
:10347000938120E03FEF4FE757E40E94C503181601
:103480000CF043C0FE01E958FE4F608171818281DA
:10349000938120E030E040E251E40E941F02DC0111
:1034A000CB018E010F581E4FBC01CD010E94490077
:1034B000DC01CB01F801918380831FC0FE01E1593B
:1034C000FE4F80E991E091838083FE01E159FE4F38
:1034D000808191810197F1F7FE01E159FE4F9183BF
:1034E0008083DE01AF58BE4FFE01EF58FE4F808152
:1034F0009181019711969C938E93FE01EF58FE4F98
:10350000808191810097D1F627C08E010F581E4F00
:10351000FE01ED58FE4F60817181828193810E948E
:103520004900DC01CB01F80191838083DE01A359BE
:10353000BE4FFE01EF58FE4F808191818D939C9389
:10354000FE01E359FE4F808191810197F1F7FE0161
:10355000E359FE4F9183808380E261E047E00E945F
:10356000280F80E263E047E00E94280F24EF32E05A
:1035700080E0B90141E028E00E9463112CE433E0CF
:1035800081E0B90143E028E00E946311FE01E759A0
:10359000FE4F80E090E0A8ECB2E480839183A283A8
:1035A000B3838E010B591E4FFE01E759FE4F608118
:1035B00071818281938120E030E04AE755E40E94E6
:1035C0001F02DC01CB01F80180839183A283B383C6
:1035D000FE01EB59FE4F608171818281938120E071
:1035E00030E040E85FE30E942504882344F4FE01B4
:1035F000ED59FE4F81E090E09183808364C0FE012D
:10360000EB59FE4F608171818281938120E03FEF11
:103610004FE757E40E94C50318160CF043C0FE01A3
:10362000E759FE4F608171818281938120E030E013
:1036300040E251E40E941F02DC01CB018E010D59D2
:103640001E4FBC01CD010E944900DC01CB01F801F5
:10365000918380831FC0FE01EF59FE4F80E991E006
:1036600091838083FE01EF59FE4F80819181019704
:10367000F1F7FE01EF59FE4F91838083DE01AD59D2
:10368000BE4FFE01ED59FE4F808191810197119649
:103690009C938E93FE01ED59FE4F8081918100979E
:1036A000D1F627C08E010D591E4FFE01EB59FE4F7A
:1036B00060817181828193810E944900DC01CB018C
:1036C000F80191838083DE01A15ABE4FFE01ED59BE
:1036D000FE4F808191818D939C93FE01E15AFE4FB4
:1036E000808191810197F1F7FE01E15AFE4F9183AC
:1036F000808380E261E048E00E94280F24EF32E0FE
:1037000080E0B90141E02CE00E946311FE01E55A1E
:10371000FE4F80E090E0A8ECB2E480839183A28326
:10372000B3838E01095A1E4FFE01E55AFE4F608198
:1037300071818281938120E030E04AE755E40E9464
:103740001F02DC01CB01F80180839183A283B38344
:10375000FE01E95AFE4F608171818281938120E0F0
:1037600030E040E85FE30E942504882344F4FE0132
:10377000EB5AFE4F81E090E09183808364C0FE01AC
:10378000E95AFE4F608171818281938120E03FEF91
:103790004FE757E40E94C50318160CF043C0FE0122
:1037A000E55AFE4F608171818281938120E030E093
:1037B00040E251E40E941F02DC01CB018E010B5A52
:1037C0001E4FBC01CD010E944900DC01CB01F80174
:1037D000918380831FC0FE01ED5AFE4F80E991E086
:1037E00091838083FE01ED5AFE4F80819181019784
:1037F000F1F7FE01ED5AFE4F91838083DE01AB5A53
:10380000BE4FFE01EB5AFE4F8081918101971196C8
:103810009C938E93FE01EB5AFE4F8081918100971D
:10382000D1F627C08E010B5A1E4FFE01E95AFE4FFA
:1038300060817181828193810E944900DC01CB010A
:10384000F80191838083DE01AF5ABE4FFE01EB5A2F
:10385000FE4F808191818D939C93FE01EF5AFE4F24
:10386000808191810197F1F7FE01EF5AFE4F91831C
:10387000808380E261E04CE00E94280F24EF32E078
:1038800080E0B90141E02DE00E946311FE01E35B9D
:10389000FE4F80E090E0A8ECB2E480839183A283A5
:1038A000B3838E01075B1E4FFE01E35BFE4F608119
:1038B00071818281938120E030E04AE755E40E94E3
:1038C0001F02DC01CB01F80180839183A283B383C3
:1038D000FE01E75BFE4F608171818281938120E070
:1038E00030E040E85FE30E942504882344F4FE01B1
:1038F000E95BFE4F81E090E09183808364C0FE012C
:10390000E75BFE4F608171818281938120E03FEF10
:103910004FE757E40E94C50318160CF043C0FE01A0
:10392000E35BFE4F608171818281938120E030E012
:1039300040E251E40E941F02DC01CB018E01095BD1
:103940001E4FBC01CD010E944900DC01CB01F801F2
:10395000918380831FC0FE01EB5BFE4F80E991E005
:1039600091838083FE01EB5BFE4F80819181019703
:10397000F1F7FE01EB5BFE4F91838083DE01A95BD3
:10398000BE4FFE01E95BFE4F808191810197119648
:103990009C938E93FE01E95BFE4F8081918100979D
:1039A000D1F627C08E01095B1E4FFE01E75BFE4F7B
:1039B00060817181828193810E944900DC01CB0189
:1039C000F80191838083DE01AD5BBE4FFE01E95BB0
:1039D000FE4F808191818D939C93FE01ED5BFE4FA4
:1039E000808191810197F1F7FE01ED5BFE4F91839C
:1039F000808380E261E04DE00E94280F24EF32E0F6
:103A000080E0B90141E02EE00E946311FE01E15C1B
:103A1000FE4F80E090E0A8ECB2E480839183A28323
:103A2000B3838E01055C1E4FFE01E15CFE4F608199
:103A300071818281938120E030E04AE755E40E9461
:103A40001F02DC01CB01F80180839183A283B38341
:103A5000FE01E55CFE4F608171818281938120E0EF
:103A600030E040E85FE30E942504882344F4FE012F
:103A7000E75CFE4F81E090E09183808364C0FE01AB
:103A8000E55CFE4F608171818281938120E03FEF90
:103A90004FE757E40E94C50318160CF043C0FE011F
:103AA000E15CFE4F608171818281938120E030E092
:103AB00040E251E40E941F02DC01CB018E01075C51
:103AC0001E4FBC01CD010E944900DC01CB01F80171
:103AD000918380831FC0FE01E95CFE4F80E991E085
:103AE00091838083FE01E95CFE4F80819181019783
:103AF000F1F7FE01E95CFE4F91838083DE01A75C54
:103B0000BE4FFE01E75CFE4F8081918101971196C7
:103B10009C938E93FE01E75CFE4F8081918100971C
:103B2000D1F627C08E01075C1E4FFE01E55CFE4FFB
:103B300060817181828193810E944900DC01CB0107
:103B4000F80191838083DE01AB5CBE4FFE01E75C30
:103B5000FE4F808191818D939C93FE01EB5CFE4F23
:103B6000808191810197F1F7FE01EB5CFE4F91831B
:103B7000808380E261E04EE00E94280F24EF32E073
:103B800080E0B90141E02FE00E946311FE01EF5C8B
:103B9000FE4F80E090E0A8ECB2E480839183A283A2
:103BA000B3838E01035D1E4FFE01EF5CFE4F60810B
:103BB00071818281938120E030E04AE755E40E94E0
:103BC0001F02DC01CB01F80180839183A283B383C0
:103BD000FE01E35DFE4F608171818281938120E06F
:103BE00030E040E85FE30E942504882344F4FE01AE
:103BF000E55DFE4F81E090E09183808364C0FE012B
:103C0000E35DFE4F608171818281938120E03FEF0F
:103C10004FE757E40E94C50318160CF043C0FE019D
:103C2000EF5CFE4F608171818281938120E030E002
:103C300040E251E40E941F02DC01CB018E01055DD0
:103C40001E4FBC01CD010E944900DC01CB01F801EF
:103C5000918380831FC0FE01E75DFE4F80E991E004
:103C600091838083FE01E75DFE4F80819181019702
:103C7000F1F7FE01E75DFE4F91838083DE01A55DD4
:103C8000BE4FFE01E55DFE4F808191810197119647
:103C90009C938E93FE01E55DFE4F8081918100979C
:103CA000D1F627C08E01055D1E4FFE01E35DFE4F7C
:103CB00060817181828193810E944900DC01CB0186
:103CC000F80191838083DE01A95DBE4FFE01E55DB1
:103CD000FE4F808191818D939C93FE01E95DFE4FA3
:103CE000808191810197F1F7FE01E95DFE4F91839B
:103CF000808380E261E04FE00E94280F24EF32E0F1
:103D000080E0B90141E020E10E946311FE01ED5D18
:103D1000FE4F80E090E0A8ECB2E480839183A28320
:103D2000B3838E01015E1E4FFE01ED5DFE4F60818B
:103D300071818281938120E030E04AE755E40E945E
:103D40001F02DC01CB01F80180839183A283B3833E
:103D5000FE01E15EFE4F608171818281938120E0EE
:103D600030E040E85FE30E942504882344F4FE012C
:103D7000E35EFE4F81E090E09183808364C0FE01AA
:103D8000E15EFE4F608171818281938120E03FEF8F
:103D90004FE757E40E94C50318160CF043C0FE011C
:103DA000ED5DFE4F608171818281938120E030E082
:103DB00040E251E40E941F02DC01CB018E01035E50
:103DC0001E4FBC01CD010E944900DC01CB01F8016E
:103DD000918380831FC0FE01E55EFE4F80E991E084
:103DE00091838083FE01E55EFE4F80819181019782
:103DF000F1F7FE01E55EFE4F91838083DE01A35E55
:103E0000BE4FFE01E35EFE4F8081918101971196C6
:103E10009C938E93FE01E35EFE4F8081918100971B
:103E2000D1F627C08E01035E1E4FFE01E15EFE4FFC
:103E300060817181828193810E944900DC01CB0104
:103E4000F80191838083DE01A75EBE4FFE01E35E31
:103E5000FE4F808191818D939C93FE01E75EFE4F22
:103E6000808191810197F1F7FE01E75EFE4F91831A
:103E7000808380E261E040E10E94280F24EF32E07D
:103E800080E0B90141E021E10E946311FE01EB5E97
:103E9000FE4F80E090E0A8ECB2E480839183A2839F
:103EA000B3838E010F5E1E4FFE01EB5EFE4F6081FD
:103EB00071818281938120E030E04AE755E40E94DD
:103EC0001F02DC01CB01F80180839183A283B383BD
:103ED000FE01EF5EFE4F608171818281938120E05F
:103EE00030E040E85FE30E942504882344F4FE01AB
:103EF000E15FFE4F81E090E09183808364C0FE012A
:103F0000EF5EFE4F608171818281938120E03FEFFF
:103F10004FE757E40E94C50318160CF043C0FE019A
:103F2000EB5EFE4F608171818281938120E030E001
:103F300040E251E40E941F02DC01CB018E01015FCF
:103F40001E4FBC01CD010E944900DC01CB01F801EC
:103F5000918380831FC0FE01E35FFE4F80E991E003
:103F600091838083FE01E35FFE4F80819181019701
:103F7000F1F7FE01E35FFE4F91838083DE01A15FD5
:103F8000BE4FFE01E15FFE4F808191810197119646
:103F90009C938E93FE01E15FFE4F8081918100979B
:103FA000D1F627C08E01015F1E4FFE01EF5EFE4F6E
:103FB00060817181828193810E944900DC01CB0183
:103FC000F80191838083DE01A55FBE4FFE01E15FB2
:103FD000FE4F808191818D939C93FE01E55FFE4FA2
:103FE000808191810197F1F7FE01E55FFE4F91839A
:103FF000808380E261E041E10E94280F80E263E07B
:1040000048E00E94280F24EF32E080E0B90141E04F
:1040100022E10E9463112CE433E081E0B90143E026
:1040200022E10E94631124E633E082E0B90141E01D
:1040300023E10E9463112CE633E083E0B90143E001
:1040400023E10E946311FE01E95FFE4F80E090E0F2
:10405000AAE7B4E480839183A283B3838E010D5FCA
:104060001E4FFE01E95FFE4F608171818281938165
:1040700020E030E04AE755E40E941F02DC01CB015A
:10408000F80180839183A283B383FE01ED5FFE4F2D
:10409000608171818281938120E030E040E85FE3BC
:1040A0000E942504882344F4FE01EF5FFE4F81E067
:1040B00090E09183808364C0FE01ED5FFE4F6081DC
:1040C00071818281938120E03FEF4FE757E40E94A6
:1040D000C50318160CF043C0FE01E95FFE4F608176
:1040E00071818281938120E030E040E251E40E94BE
:1040F0001F02DC01CB018E010F5F1E4FBC01CD0101
:104100000E944900DC01CB01F801918380831FC02C
:10411000FE01E150FF4F80E991E091838083FE0131
:10412000E150FF4F808191810197F1F7FE01E1504D
:10413000FF4F91838083DE01AF5FBE4FFE01EF5FD3
:10414000FE4F80819181019711969C938E93FE0181
:10415000EF5FFE4F808191810097D1F627C08E01DD
:104160000F5F1E4FFE01ED5FFE4F60817181828106
:1041700093810E944900DC01CB01F8019183808387
:10418000DE01A350BF4FFE01EF5FFE4F80819181A2
:104190008D939C93FE01E350FF4F808191810197A5
:1041A000F1F7FE01E350FF4F918380830E94F50EEB
:1041B0008FE291E060E040E00E94670F84E491E0CC
:1041C00061E040E00E94670F24EF32E080E0B90137
:1041D00043E028E00E94631124EF32E080E0B9015F
:1041E00043E029E00E94631124EF32E080E0B9014E
:1041F00043E02AE00E94631124EF32E080E0B9013D
:1042000043E02BE00E946311FE01E750FF4F80E086
:1042100090E0A8ECB2E480839183A283B3838E0103
:104220000B501F4FFE01E750FF4F6081718182816B
:10423000938120E030E04AE755E40E941F02DC0150
:10424000CB01F80180839183A283B383FE01EB50FD
:10425000FF4F608171818281938120E030E040E8EE
:104260005FE30E942504882344F4FE01ED50FF4FD4
:1042700081E090E09183808364C0FE01EB50FF4FAA
:10428000608171818281938120E03FEF4FE757E4A5
:104290000E94C50318160CF043C0FE01E750FF4F03
:1042A000608171818281938120E030E040E251E4BD
:1042B0000E941F02DC01CB018E010D501F4FBC017B
:1042C000CD010E944900DC01CB01F801918380837C
:1042D0001FC0FE01EF50FF4F80E991E09183808382
:1042E000FE01EF50FF4F808191810197F1F7FE01B0
:1042F000EF50FF4F91838083DE01AD50BF4FFE0131
:10430000ED50FF4F80819181019711969C938E9380
:10431000FE01ED50FF4F808191810097D1F627C0BB
:104320008E010D501F4FFE01EB50FF4F60817181D8
:10433000828193810E944900DC01CB01F8019183C5
:104340008083DE01A151BF4FFE01ED50FF4F808100
:1043500091818D939C93FE01E151FF4F808191816A
:104360000197F1F7FE01E151FF4F918380832CEF1C
:1043700032E080E0B90143E028E00E9463112CEFB5
:1043800032E080E0B90143E029E00E9463112CEFA4
:1043900032E080E0B90143E02AE00E9463112CEF93
:1043A00032E080E0B90143E02BE00E946311FE019E
:1043B000E551FF4F80E090E0A8ECB2E48083918368
:1043C000A283B3838E0109511F4FFE01E551FF4FB8
:1043D000608171818281938120E030E04AE755E479
:1043E0000E941F02DC01CB01F80180839183A2832C
:1043F000B383FE01E951FF4F608171818281938116
:1044000020E030E040E85FE30E942504882344F484
:10441000FE01EB51FF4F81E090E09183808364C007
:10442000FE01E951FF4F608171818281938120E01B
:104430003FEF4FE757E40E94C50318160CF043C046
:10444000FE01E551FF4F608171818281938120E0FF
:1044500030E040E251E40E941F02DC01CB018E01FA
:104460000B511F4FBC01CD010E944900DC01CB0163
:10447000F801918380831FC0FE01ED51FF4F80E959
:1044800091E091838083FE01ED51FF4F8081918106
:104490000197F1F7FE01ED51FF4F91838083DE011B
:1044A000AB51BF4FFE01EB51FF4F808191810197CE
:1044B00011969C938E93FE01EB51FF4F8081918169
:1044C0000097D1F627C08E010B511F4FFE01E95115
:1044D000FF4F60817181828193810E944900DC01DC
:1044E000CB01F80191838083DE01AF51BF4FFE0104
:1044F000EB51FF4F808191818D939C93FE01EF5191
:10450000FF4F808191810197F1F7FE01EF51FF4F3D
:104510009183808324E033E080E0B90143E028E028
:104520000E94631124E033E080E0B90143E029E018
:104530000E94631124E033E080E0B90143E02AE007
:104540000E94631124E033E080E0B90143E02BE0F6
:104550000E946311FE01E352FF4F80E090E0A8EC5F
:10456000B2E480839183A283B3838E0107521F4FED
:10457000FE01E352FF4F608171818281938120E0CF
:1045800030E04AE755E40E941F02DC01CB01F8014C
:1045900080839183A283B383FE01E752FF4F608142
:1045A00071818281938120E030E040E85FE30E94E6
:1045B0002504882344F4FE01E952FF4F81E090E096
:1045C0009183808364C0FE01E752FF4F6081718157
:1045D0008281938120E03FEF4FE757E40E94C503BB
:1045E00018160CF043C0FE01E352FF4F6081718149
:1045F0008281938120E030E040E251E40E941F027A
:10460000DC01CB018E0109521F4FBC01CD010E947C
:104610004900DC01CB01F801918380831FC0FE01BA
:10462000EB52FF4F80E991E091838083FE01EB52D2
:10463000FF4F808191810197F1F7FE01EB52FF4F0F
:1046400091838083DE01A952BF4FFE01E952FF4FE3
:1046500080819181019711969C938E93FE01E9527E
:10466000FF4F808191810097D1F627C08E010952BA
:104670001F4FFE01E752FF4F60817181828193815C
:104680000E944900DC01CB01F80191838083DE01A7
:10469000AD52BF4FFE01E952FF4F808191818D9352
:1046A0009C93FE01ED52FF4F808191810197F1F7BC
:1046B000FE01ED52FF4F918380832CE033E080E0D8
:1046C000B90143E028E00E9463112CE033E080E070
:1046D000B90143E029E00E9463112CE033E080E05F
:1046E000B90143E02AE00E9463112CE033E080E04E
:1046F000B90143E02BE00E946311FE01E153FF4F3B
:1047000080E090E0A8ECB2E480839183A283B3833D
:104710008E0105531F4FFE01E153FF4F60817181F0
:104720008281938120E030E04AE755E40E941F0235
:10473000DC01CB01F80180839183A283B383FE0166
:10474000E553FF4F608171818281938120E030E0E9
:1047500040E85FE30E942504882344F4FE01E75308
:10476000FF4F81E090E09183808364C0FE01E553B8
:10477000FF4F608171818281938120E03FEF4FE79D
:1047800057E40E94C50318160CF043C0FE01E15324
:10479000FF4F608171818281938120E030E040E2AF
:1047A00051E40E941F02DC01CB018E0107531F4F11
:1047B000BC01CD010E944900DC01CB01F8019183CD
:1047C00080831FC0FE01E953FF4F80E991E0918390
:1047D0008083FE01E953FF4F808191810197F1F7BA
:1047E000FE01E953FF4F91838083DE01A753BF4F42
:1047F000FE01E753FF4F80819181019711969C93B1
:104800008E93FE01E753FF4F808191810097D1F68F
:1048100027C08E0107531F4FFE01E553FF4F6081F4
:104820007181828193810E944900DC01CB01F801F2
:1048300091838083DE01AB53BF4FFE01E753FF4FEF
:10484000808191818D939C93FE01EB53FF4F80817A
:1048500091810197F1F7FE01EB53FF4F9183808324
:1048600024E133E080E0B90143E028E00E946311D5
:1048700024E133E080E0B90143E029E00E946311C4
:1048800024E133E080E0B90143E02AE00E946311B3
:1048900024E133E080E0B90143E02BE00E946311A2
:1048A000FE01EF53FF4F80E090E0A8ECB2E480837C
:1048B0009183A283B3838E0103541F4FFE01EF53F4
:1048C000FF4F608171818281938120E030E04AE76F
:1048D00055E40E941F02DC01CB01F8018083918323
:1048E000A283B383FE01E354FF4F60817181828113
:1048F000938120E030E040E85FE30E9425048823B4
:1049000044F4FE01E554FF4F81E090E09183808301
:1049100064C0FE01E354FF4F608171818281938105
:1049200020E03FEF4FE757E40E94C50318160CF054
:1049300043C0FE01EF53FF4F6081718182819381FB
:1049400020E030E040E251E40E941F02DC01CB0194
:104950008E0105541F4FBC01CD010E944900DC01AE
:10496000CB01F801918380831FC0FE01E754FF4F04
:1049700080E991E091838083FE01E754FF4F8081BD
:1049800091810197F1F7FE01E754FF4F91838083F6
:10499000DE01A554BF4FFE01E554FF4F8081918198
:1049A000019711969C938E93FE01E554FF4F8081F1
:1049B00091810097D1F627C08E0105541F4FFE014B
:1049C000E354FF4F60817181828193810E9449008D
:1049D000DC01CB01F80191838083DE01A954BF4F34
:1049E000FE01E554FF4F808191818D939C93FE01E0
:1049F000E954FF4F808191810197F1F7FE01E9545D
:104A0000FF4F918380832CE133E080E0B90143E0E4
:104A100028E00E9463112CE133E080E0B90143E01B
:104A200029E00E9463112CE133E080E0B90143E00A
:104A30002AE00E9463112CE133E080E0B90143E0F9
:104A40002BE00E946311FE01ED54FF4F80E090E0E7
:104A5000A8ECB2E480839183A283B3838E010155D5
:104A60001F4FFE01ED54FF4F608171818281938160
:104A700020E030E04AE755E40E941F02DC01CB0150
:104A8000F80180839183A283B383FE01E155FF4F38
:104A9000608171818281938120E030E040E85FE3B2
:104AA0000E942504882344F4FE01E355FF4F81E072
:104AB00090E09183808364C0FE01E155FF4F6081E7
:104AC00071818281938120E03FEF4FE757E40E949C
:104AD000C50318160CF043C0FE01ED54FF4F608172
:104AE00071818281938120E030E040E251E40E94B4
:104AF0001F02DC01CB018E0103551F4FBC01CD010C
:104B00000E944900DC01CB01F801918380831FC022
:104B1000FE01E555FF4F80E991E091838083FE011E
:104B2000E555FF4F808191810197F1F7FE01E55531
:104B3000FF4F91838083DE01A355BF4FFE01E355F4
:104B4000FF4F80819181019711969C938E93FE0176
:104B5000E355FF4F808191810097D1F627C08E01E8
:104B600003551F4FFE01E155FF4F60817181828126
:104B700093810E944900DC01CB01F801918380837D
:104B8000DE01A755BF4FFE01E355FF4F80819181A4
:104B90008D939C93FE01E755FF4F80819181019792
:104BA000F1F7FE01E755FF4F9183808324E233E064
:104BB00080E0B90143E028E00E94631124E233E081
:104BC00080E0B90143E029E00E94631124E233E070
:104BD00080E0B90143E02AE00E94631124E233E05F
:104BE00080E0B90143E02BE00E946311FE01EB5528
:104BF000FF4F80E090E0A8ECB2E480839183A28331
:104C0000B3838E010F551F4FFE01EB55FF4F60819F
:104C100071818281938120E030E04AE755E40E946F
:104C20001F02DC01CB01F80180839183A283B3834F
:104C3000FE01EF55FF4F608171818281938120E0F9
:104C400030E040E85FE30E942504882344F4FE013D
:104C5000E156FF4F81E090E09183808364C0FE01C4
:104C6000EF55FF4F608171818281938120E03FEF9A
:104C70004FE757E40E94C50318160CF043C0FE012D
:104C8000EB55FF4F608171818281938120E030E09C
:104C900040E251E40E941F02DC01CB018E0101566B
:104CA0001F4FBC01CD010E944900DC01CB01F8017E
:104CB000918380831FC0FE01E356FF4F80E991E09E
:104CC00091838083FE01E356FF4F8081918101979C
:104CD000F1F7FE01E356FF4F91838083DE01A15679
:104CE000BF4FFE01E156FF4F8081918101971196E0
:104CF0009C938E93FE01E156FF4F80819181009736
:104D0000D1F627C08E0101561F4FFE01EF55FF4F10
:104D100060817181828193810E944900DC01CB0115
:104D2000F80191838083DE01A556BF4FFE01E15655
:104D3000FF4F808191818D939C93FE01E556FF4F3B
:104D4000808191810197F1F7FE01E556FF4F918334
:104D500080832CE233E080E0B90143E028E00E9448
:104D600063112CE233E080E0B90143E029E00E94C6
:104D700063112CE233E080E0B90143E02AE00E94B5
:104D800063112CE233E080E0B90143E02BE00E94A4
:104D90006311FE01E956FF4F80E090E0A8ECB2E419
:104DA00080839183A283B3838E010D561F4FFE0132
:104DB000E956FF4F608171818281938120E030E06C
:104DC0004AE755E40E941F02DC01CB01F801808311
:104DD0009183A283B383FE01ED56FF4F6081718101
:104DE0008281938120E030E040E85FE30E94250467
:104DF000882344F4FE01EF56FF4F81E090E0918359
:104E0000808364C0FE01ED56FF4F60817181828115
:104E1000938120E03FEF4FE757E40E94C503181647
:104E20000CF043C0FE01E956FF4F60817181828121
:104E3000938120E030E040E251E40E941F02DC0157
:104E4000CB018E010F561F4FBC01CD010E944900BE
:104E5000DC01CB01F801918380831FC0FE01E15783
:104E6000FF4F80E991E091838083FE01E157FF4F7E
:104E7000808191810197F1F7FE01E157FF4F918306
:104E80008083DE01AF56BF4FFE01EF56FF4F80819A
:104E90009181019711969C938E93FE01EF56FF4FDF
:104EA000808191810097D1F627C08E010F561F4F48
:104EB000FE01ED56FF4F60817181828193810E94D6
:104EC0004900DC01CB01F80191838083DE01A35707
:104ED000BF4FFE01EF56FF4F808191818D939C93D0
:104EE000FE01E357FF4F808191810197F1F7FE01A9
:104EF000E357FF4F9183808324E333E080E0B901DF
:104F000043E028E00E94631124E333E080E0B9012C
:104F100043E029E00E94631124E333E080E0B9011B
:104F200043E02AE00E94631124E333E080E0B9010A
:104F300043E02BE00E946311FE01E757FF4F80E042
:104F400090E0A8ECB2E480839183A283B3838E01C6
:104F50000B571F4FFE01E757FF4F60817181828120
:104F6000938120E030E04AE755E40E941F02DC0113
:104F7000CB01F80180839183A283B383FE01EB57B9
:104F8000FF4F608171818281938120E030E040E8B1
:104F90005FE30E942504882344F4FE01ED57FF4F90
:104FA00081E090E09183808364C0FE01EB57FF4F66
:104FB000608171818281938120E03FEF4FE757E468
:104FC0000E94C50318160CF043C0FE01E757FF4FBF
:104FD000608171818281938120E030E040E251E480
:104FE0000E941F02DC01CB018E010D571F4FBC0137
:104FF000CD010E944900DC01CB01F801918380833F
:105000001FC0FE01EF57FF4F80E991E0918380833D
:10501000FE01EF57FF4F808191810197F1F7FE016B
:10502000EF57FF4F91838083DE01AD57BF4FFE01E5
:10503000ED57FF4F80819181019711969C938E933C
:10504000FE01ED57FF4F808191810097D1F627C077
:105050008E010D571F4FFE01EB57FF4F608171818D
:10506000828193810E944900DC01CB01F801918388
:105070008083DE01A158BF4FFE01ED57FF4F8081B5
:1050800091818D939C93FE01E158FF4F8081918126
:105090000197F1F7FE01E158FF4F91838083FE01F4
:1050A000E558FF4F80E090E0AAEFB3E4808391835E
:1050B000A283B3838E0109581F4FFE01E558FF4FAD
:1050C000608171818281938120E030E04AE755E47C
:1050D0000E941F02DC01CB01F80180839183A2832F
:1050E000B383FE01E958FF4F608171818281938112
:1050F00020E030E040E85FE30E942504882344F488
:10510000FE01EB58FF4F81E090E09183808364C003
:10511000FE01E958FF4F608171818281938120E017
:105120003FEF4FE757E40E94C50318160CF043C049
:10513000FE01E558FF4F608171818281938120E0FB
:1051400030E040E251E40E941F02DC01CB018E01FD
:105150000B581F4FBC01CD010E944900DC01CB015F
:10516000F801918380831FC0FE01ED58FF4F80E955
:1051700091E091838083FE01ED58FF4F8081918102
:105180000197F1F7FE01ED58FF4F91838083DE0117
:10519000AB58BF4FFE01EB58FF4F808191810197C3
:1051A00011969C938E93FE01EB58FF4F8081918165
:1051B0000097D1F627C08E010B581F4FFE01E9580A
:1051C000FF4F60817181828193810E944900DC01DF
:1051D000CB01F80191838083DE01AF58BF4FFE0100
:1051E000EB58FF4F808191818D939C93FE01EF5886
:1051F000FF4F808191810197F1F7FE01EF58FF4F3A
:10520000918380830E94F50E87E591E060E040E0A5
:105210000E94670F8BE691E061E040E00E94670F1B
:105220002CE433E081E0B90143E028E00E946311FF
:105230002CE433E081E0B90143E029E00E946311EE
:105240002CE433E081E0B90143E02AE00E946311DD
:105250002CE433E081E0B90143E02BE00E946311CC
:10526000FE01E359FF4F80E090E0A8ECB2E48083B8
:105270009183A283B3838E0107591F4FFE01E35927
:10528000FF4F608171818281938120E030E04AE7A5
:1052900055E40E941F02DC01CB01F8018083918359
:1052A000A283B383FE01E759FF4F60817181828140
:1052B000938120E030E040E85FE30E9425048823EA
:1052C00044F4FE01E959FF4F81E090E0918380832F
:1052D00064C0FE01E759FF4F608171818281938133
:1052E00020E03FEF4FE757E40E94C50318160CF08B
:1052F00043C0FE01E359FF4F608171818281938138
:1053000020E030E040E251E40E941F02DC01CB01CA
:105310008E0109591F4FBC01CD010E944900DC01DB
:10532000CB01F801918380831FC0FE01EB59FF4F31
:1053300080E991E091838083FE01EB59FF4F8081EA
:1053400091810197F1F7FE01EB59FF4F9183808323
:10535000DE01A959BF4FFE01E959FF4F80819181BC
:10536000019711969C938E93FE01E959FF4F80811E
:1053700091810097D1F627C08E0109591F4FFE0178
:10538000E759FF4F60817181828193810E944900BA
:10539000DC01CB01F80191838083DE01AD59BF4F61
:1053A000FE01E959FF4F808191818D939C93FE010D
:1053B000ED59FF4F808191810197F1F7FE01ED5981
:1053C000FF4F9183808324E533E081E0B90143E01E
:1053D00028E00E94631124E533E081E0B90143E055
:1053E00029E00E94631124E533E081E0B90143E044
:1053F0002AE00E94631124E533E081E0B90143E033
:105400002BE00E946311FE01E15AFF4F80E090E023
:10541000A8ECB2E480839183A283B3838E01055A02
:105420001F4FFE01E15AFF4F60817181828193819C
:1054300020E030E04AE755E40E941F02DC01CB0186
:10544000F80180839183A283B383FE01E55AFF4F65
:10545000608171818281938120E030E040E85FE3E8
:105460000E942504882344F4FE01E75AFF4F81E09F
:1054700090E09183808364C0FE01E55AFF4F608114
:1054800071818281938120E03FEF4FE757E40E94D2
:10549000C50318160CF043C0FE01E15AFF4F6081AE
:1054A00071818281938120E030E040E251E40E94EA
:1054B0001F02DC01CB018E01075A1F4FBC01CD0139
:1054C0000E944900DC01CB01F801918380831FC059
:1054D000FE01E95AFF4F80E991E091838083FE014C
:1054E000E95AFF4F808191810197F1F7FE01E95A56
:1054F000FF4F91838083DE01A75ABF4FFE01E75A19
:10550000FF4F80819181019711969C938E93FE01AC
:10551000E75AFF4F808191810097D1F627C08E0115
:10552000075A1F4FFE01E55AFF4F6081718182814A
:1055300093810E944900DC01CB01F80191838083B3
:10554000DE01AB5ABF4FFE01E75AFF4F80819181C8
:105550008D939C93FE01EB5AFF4F808191810197BF
:10556000F1F7FE01EB5AFF4F918380832CE533E086
:1055700081E0B90143E028E00E9463112CE533E0AB
:1055800081E0B90143E029E00E9463112CE533E09A
:1055900081E0B90143E02AE00E9463112CE533E089
:1055A00081E0B90143E02BE00E946311FE01EF5A54
:1055B000FF4F80E090E0A8ECB2E480839183A28367
:1055C000B3838E01035B1F4FFE01EF5AFF4F6081D3
:1055D00071818281938120E030E04AE755E40E94A6
:1055E0001F02DC01CB01F80180839183A283B38386
:1055F000FE01E35BFF4F608171818281938120E036
:1056000030E040E85FE30E942504882344F4FE0173
:10561000E55BFF4F81E090E09183808364C0FE01F1
:10562000E35BFF4F608171818281938120E03FEFD6
:105630004FE757E40E94C50318160CF043C0FE0163
:10564000EF5AFF4F608171818281938120E030E0C9
:1056500040E251E40E941F02DC01CB018E01055B98
:105660001F4FBC01CD010E944900DC01CB01F801B4
:10567000918380831FC0FE01E75BFF4F80E991E0CB
:1056800091838083FE01E75BFF4F808191810197C9
:10569000F1F7FE01E75BFF4F91838083DE01A55B9D
:1056A000BF4FFE01E55BFF4F80819181019711960D
:1056B0009C938E93FE01E55BFF4F80819181009763
:1056C000D1F627C08E01055B1F4FFE01E35BFF4F44
:1056D00060817181828193810E944900DC01CB014C
:1056E000F80191838083DE01A95BBF4FFE01E55B7A
:1056F000FF4F808191818D939C93FE01E95BFF4F69
:10570000808191810197F1F7FE01E95BFF4F918361
:1057100080832CE433E081E0B90143E028E00E947B
:1057200063112CE433E081E0B90143E029E00E94F9
:1057300063112CE433E081E0B90143E02AE00E94E8
:1057400063112CE433E081E0B90143E02BE00E94D7
:105750006311FE01ED5BFF4F80E090E0A8ECB2E446
:1057600080839183A283B3838E01015C1F4FFE016E
:10577000ED5BFF4F608171818281938120E030E099
:105780004AE755E40E941F02DC01CB01F801808347
:105790009183A283B383FE01FF9660817181828130
:1057A000938120E030E040E85FE30E9425048823F5
:1057B0002CF481E090E09EAF8DAF46C0FE01FF96D5
:1057C000608171818281938120E03FEF4FE757E450
:1057D0000E94C503181664F5FE01ED5BFF4F608162
:1057E00071818281938120E030E040E251E40E94A7
:1057F0001F02DC01CB01BC01CD010E944900DC018C
:10580000CB019EAF8DAF0FC080E991E09CAF8BAF15
:105810008BAD9CAD0197F1F79CAF8BAF8DAD9EAD7D
:1058200001979EAF8DAF8DAD9EAD009769F716C005
:10583000FE01FF9660817181828193810E944900FF
:10584000DC01CB019EAF8DAF8DAD9EAD9AAF89AF20
:1058500089AD9AAD0197F1F79AAF89AF24E533E0AE
:1058600081E0B90143E028E00E94631124E533E0C0
:1058700081E0B90143E029E00E94631124E533E0AF
:1058800081E0B90143E02AE00E94631124E533E09E
:1058900081E0B90143E02BE00E94631180E090E0D9
:1058A000A8ECB2E48DAB9EABAFABB8AF6DA97EA94F
:1058B0008FA998AD20E030E04AE755E40E941F022E
:1058C000DC01CB0189AB9AABABABBCAB69A97AA9C4
:1058D0008BA99CA920E030E040E85FE30E9425040A
:1058E00088232CF481E090E098AB8FA73FC069A992
:1058F0007AA98BA99CA920E03FEF4FE757E40E94CB
:10590000C50318164CF56DA97EA98FA998AD20E0A6
:1059100030E040E251E40E941F02DC01CB01BC01F7
:10592000CD010E944900DC01CB0198AB8FA70FC0CD
:1059300080E991E09EA78DA78DA59EA50197F1F71F
:105940009EA78DA78FA598A9019798AB8FA78FA524
:1059500098A9009769F714C069A97AA98BA99CA98D
:105960000E944900DC01CB0198AB8FA78FA598A9B5
:105970009CA78BA78BA59CA50197F1F79CA78BA74C
:105980002CE533E081E0B90143E028E00E94631197
:105990002CE533E081E0B90143E029E00E94631186
:1059A0002CE533E081E0B90143E02AE00E94631175
:1059B0002CE533E081E0B90143E02BE00E94631164
:1059C00080E090E0AAE7B4E48FA398A7A9A7BAA7BC
:1059D0006FA178A589A59AA520E030E04AE755E4B3
:1059E0000E941F02DC01CB018BA39CA3ADA3BEA32D
:1059F0006BA17CA18DA19EA120E030E040E85FE397
:105A00000E94250488232CF481E090E09AA389A3C6
:105A10003FC06BA17CA18DA19EA120E03FEF4FE78D
:105A200057E40E94C50318164CF56FA178A589A507
:105A30009AA520E030E040E251E40E941F02DC0120
:105A4000CB01BC01CD010E944900DC01CB019AA32E
:105A500089A30FC080E991E098A38F8F8F8D98A1C3
:105A60000197F1F798A38F8F89A19AA101979AA323
:105A700089A389A19AA1009769F714C06BA17CA1A1
:105A80008DA19EA10E944900DC01CB019AA389A3AC
:105A900089A19AA19E8F8D8F8D8D9E8D0197F1F793
:105AA0009E8F8D8F0E94F50E8EE791E060E040E0C2
:105AB0000E94670F82E991E062E040E00E94670F78
:105AC00080E090E8ABEBB4E4898F9A8FAB8FBC8F0A
:105AD000698D7A8D8B8D9C8D20E030E04AE755E40E
